:100000000C94DA000C9402010C9402010C9402018D
:100010000C9402010C9402010C94181A0C94020125
:100020000C9402010C9402010C9402010C94020144
:100030000C9402010C9402010C9402010C94020134
:100040000C94AF180C9402010C947D180C94571862
:100050000C9402010C9402010C9402010C94020114
:100060000C94F9180C9402011F1C1F1E1F1E1F1F49
:100070001E1F1E1F000000090003020000040508E7
:10008000000000000000000000000074696D652C95
:10009000616D6269656E745F6C696768742C62611A
:1000A000636B736361747465722C707265737375BE
:1000B00072652C77617465725F74656D702C626116
:1000C0007474657279004669726D77617265207526
:1000D0007064617465643A2000496620666F756ECD
:1000E000642C20706C6561736520636F6E7461634E
:1000F0007420746C616E67406C6976652E756E63F2
:100100002E65647500245374617274757020666185
:10011000696C65642A363600534E207375636365D7
:10012000737366756C6C792073657420746F3A20F4
:1001300000496E76616C696420534E004D6973739B
:10014000696E672073657269616C206E756D62659A
:10015000722E20456E74657220612076616C696430
:1001600020534E205B312D36353533345D3A000057
:10017000000000250028002B0000000000240027BC
:10018000002A00040404040404040402020202021B
:100190000203030303030302020301020408102005
:1001A0004080010204081020010204081020408051
:1001B00040003C1A11241FBECFEFD8E0DEBFCDBFF8
:1001C00012E0A0E0B1E0E8E9FDE502C005900D9283
:1001D000A432B107D9F726E0A4E2B2E001C01D9233
:1001E000AA3CB207E1F710E0CAEDD0E004C02197C5
:1001F000FE010E944D2EC93DD107C9F70E94C91AC0
:100200000C94CA2E0C940000909173038091720399
:100210002FEF3FEF981748F4E92FF0E0EE5AFC4F2C
:10022000208130E09F5F90937303C90108959091FE
:100230007303809172032FEF3FEF981748F4E92F73
:10024000F0E0EE5AFC4F208130E09F5F9093730303
:10025000C9010895909151039111FCCF91E09093C1
:100260005103409350032FEF20934F0310924E03FE
:10027000260F20934D0390934C0390914C03880FCD
:10028000892B80934C0380914B038130F9F41092B9
:100290004B0380914C038093BB008091BC0083FD95
:1002A000F8CF85EC8093BC00809151038130E1F35D
:1002B00080914E03861710F460914E03ABE2B3E0D9
:1002C000E2E5F3E080E0861303C0089585EEEACF0F
:1002D0009D9191938F5FF7CF982F20912A0381E012
:1002E000213208F043C0809151038111FCCF8091ED
:1002F000290332E030935103909350039FEF909382
:100300004F0310924E0320934D03A9E0B3E0EBE2BC
:10031000F3E090E0291331C010924C0390914C030C
:10032000880F892B80934C0380914B03813049F5D2
:1003300010924B0380914C038093BB008091BC00D2
:1003400083FDF8CF85EC8093BC008091510382300F
:10035000E1F380914F038F3FB1F080914F038032E2
:10036000A1F080914F03803391F084E01092080354
:1003700010922A031092070308953D9131939F5FD5
:10038000C9CF85EEE0CF80E0F1CF82E0EFCF83E010
:10039000EDCF91E090930703809329031092080317
:1003A00010922A03089590E0FC01E656FE4F249136
:1003B0008D579E4FFC018491882399F090E0880F1F
:1003C000991FFC01E758FE4FA591B491FC01E1593A
:1003D000FE4F859194918FB7F894EC91E22BEC93BA
:1003E0008FBF08958091720390917303891B990BBD
:1003F000089508950895FA011082E0917102F09134
:1004000072020994EF92FF920F931F93CF93DF93A1
:100410008C017B01D0E0C0E0F701EC0FFD1F64917F
:10042000662361F0D801ED91FC910190F081E02DFF
:10043000C8010995892B11F02196EECFCE01DF91ED
:10044000CF911F910F91FF90EF900895AF92BF92BF
:10045000CF92DF92EF92FF920F931F93CF93DF9390
:100460006C017B018B01040F151FEB015E01AE18BF
:10047000BF08C017D10759F06991D601ED91FC91E1
:100480000190F081E02DC6010995892B79F7C5010E
:10049000DF91CF911F910F91FF90EF90DF90CF9060
:1004A000BF90AF900895FC01538D448D252F30E00F
:1004B000842F90E0821B930B541710F0CF96089571
:1004C00001970895FC01918D828D981761F0A28D9E
:1004D000AE0FBF2FB11D5D968C91928D9F5F9F7364
:1004E000928F90E008958FEF9FEF0895FC01918D1A
:1004F000828D981731F0828DE80FF11D858D90E087
:1005000008958FEF9FEF0895FC01918D228D892F23
:1005100090E0805C9F4F821B91098F73992708950B
:1005200084E793E00E94840221E0892B09F420E013
:10053000822F089580E090E0892B29F00E9490029C
:1005400081110C9400000895FC01A48DA80FB92F0F
:10055000B11DA35ABF4F2C91848D90E001968F73EB
:100560009927848FA689B7892C93A089B1898C910A
:1005700080648C93938D848D981306C00288F389D0
:10058000E02D80818F7D80830895EF92FF920F93FD
:100590001F93CF93DF93EC0181E0888F9B8D8C8D2F
:1005A000981316C0E889F989808185FF11C0EE890A
:1005B000FF896083E889F98980818064808381E094
:1005C00090E0DF91CF911F910F91FF90EF900895F0
:1005D000F62E0B8D10E00F5F1F4F0F731127E02ECB
:1005E0008C8D8E110CC00FB607FCFACFE889F98903
:1005F000808185FFF5CFCE010E94A402F1CFEB8D63
:10060000EC0FFD2FF11DE35AFF4FF0820B8FEA89AB
:10061000FB8980818062D2CF0C94C502CF93DF9397
:10062000EC01888D8823B9F0AA89BB89E889F9890A
:100630008C9185FD03C0808186FD0DC00FB607FC3F
:10064000F7CF8C9185FFF2CF808185FFEDCFCE0172
:100650000E94A402E9CFDF91CF91089590E0FC01C0
:10066000EC58FF4F2491FC01E656FE4F3491FC01FB
:10067000ED57FE4FE491EE23C9F0222339F02430E8
:1006800001F1A8F4223069F1233079F1F0E0EE0FA6
:10069000FF1FE159FE4FA591B4918FB7F894EC91EB
:1006A000611126C030953E233C938FBF08952830BA
:1006B00071F0293091F0253049F7809180008F7DCD
:1006C00003C0809180008F7780938000DFCF80917E
:1006D000B0008F778093B000D9CF8091B0008F7D2C
:1006E000F9CF84B58F7784BDD1CF84B58F7DFBCF13
:1006F0003E2BDACF1092730310927203109208030C
:1007000010922A031092510381E0809350031092BB
:100710004B0361E082E10E942E0361E083E10E94CD
:100720002E03E9EBF0E080818E7F808380818D7FD6
:10073000808380E28093B80085E48093BC0089EFD9
:1007400091E09093C2028093C1028AEF91E090936E
:10075000C0028093BF0208953FB7F89480916C0265
:1007600090916D02A0916E02B0916F0226B5A89B88
:1007700005C02F3F19F00196A11DB11D3FBFBA2F33
:10078000A92F982F8827BC01CD01620F711D811DF3
:10079000911D43E0660F771F881F991F4A95D1F777
:1007A00008958F929F92AF92BF92CF92DF92EF9275
:1007B000FF926B017C010E94AC034B015C01C114F0
:1007C000D104E104F104B9F00E94AC03681979097D
:1007D0008A099B09683E73408105910580F321E0F9
:1007E000C21AD108E108F10888EE880E83E0981E4D
:1007F000A11CB11CE4CFFF90EF90DF90CF90BF9091
:10080000AF909F908F9008952FB7F89460916802F1
:100810007091690280916A0290916B022FBF0895D6
:100820000F931F930E94040460937C0370937D03D5
:1008300080937E0390937F0384E793E00E94760287
:1008400097FF1DC00E94040400917C0310917D035A
:1008500020917E0330917F03601B710B820B930B01
:10086000009178031091790320917A0330917B03F2
:100870006017710782079307F8F28FEF9FEF1F91C0
:100880000F910895CF93DF93EC019A818B819CBDEA
:100890008DBD60E08A850E942E0381E08C87DF9108
:1008A000CF9108958EBD00000DB407FEFDCF8EB52B
:1008B00008958FEF0C9452040F931F93CF93DF93FF
:1008C000EC010E9404048B010E9459048F3F69F0DF
:1008D0000E940404601B710BC617D707A8F780E0BD
:1008E000DF91CF911F910F91089581E0F9CFCF93C0
:1008F000DF93FC012485222349F0EC0161E082852D
:100900000E942E038FEF0E9452041C86DF91CF912C
:1009100008950F931F93CF93DF938C01862FEA01E5
:100920000E945204FE0181918EBDDE5FEC17FD072F
:1009300041F081910DB407FEFDCF8EBD0000000097
:10094000F5CF0DB407FEFDCF8FEF0E9452048FEF5D
:100950000E9452040E945904F80185878F718530E6
:1009600059F080E28387C8010E94770480E0DF911C
:10097000CF911F910F91089581E0F9CFDF92EF920F
:10098000FF920F931F93CF93DF93EC01162F022F4B
:10099000F32EE42ED52E888581112DC08C858111F2
:1009A00003C0CE010E944204112321F08CE291E0A9
:1009B0000E945C04812F80640E9452048D2D0E944D
:1009C00052048E2D0E9452048F2D0E945204802FBB
:1009D0000E94520487E8111101C085E90E94520467
:1009E0000E9459041BE00E9459048D8787FF09C0AB
:1009F0001150C9F706C0CE010E9409058111CECF62
:100A00008FEFDF91CF911F910F91FF90EF90DF90CB
:100A100008951F93CF93DF93EC0188851886823069
:100A2000A9F488E592E00E945C04182F882359F00D
:100A30008DEF0E945204CE010E947704812FDF9136
:100A4000CF911F9108958EE18B87F5CF813099F476
:100A500020E030E0A9016CE0CE010E94BE048823B2
:100A600039F089E08B87CE010E94770410E0E6CF51
:100A7000CE010E94770411E0E1CFCF92DF92EF9296
:100A8000FF920F931F93CF93DF93EC016A017B01D9
:100A900089018885813049F48C819D81AE81BF8137
:100AA0008C159D05AE05BF05C1F08E85A701960189
:100AB000833039F089E0220F331F441F551F8A9578
:100AC000D1F762E1CE010E94BE04811117C0CC8231
:100AD000DD82EE82FF8281E088870E9404047B0130
:100AE0000E9459048D878F3FC1F40E9404046E193F
:100AF0007F096D327140A0F38DE101C08CE08B87DE
:100B0000CE010E94770480E0DF91CF911F910F9179
:100B1000FF90EF90DF90CF9008958E3F11F088E125
:100B2000EECF8FEF8EBDF801D801A150BE4F9FEFE1
:100B3000AE17BF0749F00DB407FEFDCF8EB59EBDC1
:100B4000819300000000F4CF0DB407FEFDCF8EB5F9
:100B50008C931D860E9459040E9459048C819D81AA
:100B6000AE81BF810196A11DB11D8C839D83AE8393
:100B7000BF838985811102C081E0C6CFCE01DF919C
:100B8000CF911F910F91FF90EF90DF90CF900C9439
:100B90000905CF92DF92EF92FF920F931F93CF93AD
:100BA000DF93EC016A017B0189018985882371F15A
:100BB0008E85833039F099E0CC0CDD1CEE1CFF1CD7
:100BC0009A95D1F7A701960168E1CE010E94BE0473
:100BD000882339F08DE08B87CE010E947704F12CB9
:100BE0000BC0A8016EEFCE010E948904F82E882365
:100BF00099F3CE010E9477048F2DDF91CF911F9141
:100C00000F91FF90EF90DF90CF900895888582300C
:100C100049F48C819D81AE81BF81C816D906EA0650
:100C2000FB06C1F08E85A7019601833039F089E07B
:100C3000220F331F441F551F8A95D1F769E1CE015A
:100C40000E94BE0481110EC0CC82DD82EE82FF8242
:100C500082E0888788E592E00E945C04811108C0E8
:100C600084E201C08EE08B87CE010E947704B4CF6E
:100C7000A8016CEFCE010E948904F82E8823A1F30D
:100C80008C819D81AE81BF810196A11DB11D8C8398
:100C90009D83AE83BF838985882309F4ADCFCE01C0
:100CA000DF91CF911F910F91FF90EF90DF90CF9048
:100CB0000C940905EF92FF921F93CF93DF93FC01F1
:100CC000208111E020FF12C0EC017C01FBE0EF0E5F
:100CD000F11C4F81588569857A85970189819A81B0
:100CE0000E94C905182F811108C010E0812FDF91E3
:100CF000CF911F91FF90EF900895888181FD04C0EE
:100D000088818E7F8883F2CF4F81588569857A8567
:100D10008B819C81AD81BE81480F591F6A1F7B1F4B
:100D2000970189819A810E94C9058111E9CFDDCFA0
:100D3000CF92DF92EF92FF921F93CF93DF93DC016C
:100D40001196ED91FC91EF2B51F490E080E0DF9152
:100D5000CF911F91FF90EF90DF90CF900895122FC9
:100D60006A017B01EC018F819885A985BA858C1574
:100D70009D05AE05BF0561F0CE010E945A0688238D
:100D800021F312FF0CC01882CF82D886E986FA863A
:100D900013702881122B1883CE010B96D8CF9E0199
:100DA000255F3F4FB701A60189819A810E943D05C9
:100DB0008111E9CFCACF8F929F92AF92BF92CF920B
:100DC000DF92EF92FF920F931F934230510561051E
:100DD000710560F480E01F910F91FF90EF90DF901C
:100DE000CF90BF90AF909F908F900895FC01C08CE2
:100DF000D18CE28CF38CC416D506E606F70650F3C8
:100E0000480159016A017B018581803241F584895D
:100E10009589A689B78917E076956795579547957F
:100E20001A95D1F7480F591F6A1F7B1F23E0CF0186
:100E300080960E949806009769F2E894C7F8DD242E
:100E4000EE24FF24CC0CDD1CCC0CDD1C8C0D9D1D78
:100E5000FC0180829182A282B38281E0BCCF80318A
:100E600009F0B8CF44895589668977894D0D511DA0
:100E7000611D711D23E0CF0180960E9498060097A6
:100E800009F4A8CFDD24EE24FF24CC0CDD1CC80E11
:100E9000D91EF60111830083E0CFCF92DF92EF924B
:100EA000FF920F931F93CF93DF934230510561055B
:100EB000710550F48FEFDF91CF911F910F91FF904B
:100EC000EF90DF90CF900895FC01C08CD18CE28C24
:100ED000F38CC416D506E606F70660F389016A01AD
:100EE0007B01EC0185818032B1F584899589A689E1
:100EF000B789E7E07695679557954795EA95D1F7D5
:100F0000480F591F6A1F7B1F22E0CE0180960E9466
:100F10009806009779F2E894C7F8DD24EE24FF24C0
:100F2000CC0CDD1CCC0CDD1C8C0D9D1DFC018081CE
:100F30009181A281B381488D598D6A8D7B8D48172F
:100F400059076A077B0738F1F80180839183A283F0
:100F5000B38381E0B0CF803109F0ACCF44895589AB
:100F6000668977894D0D511D611D711D22E0CF01EC
:100F700080960E949806009709F49CCFDD24EE2409
:100F8000FF24CC0CDD1CC80ED91EF6018081918196
:100F9000B0E0A0E0D0CF80E08ECF4F925F926F9212
:100FA0007F928F929F92AF92BF92CF92DF92EF92F9
:100FB000FF920F931F93CF93DF93EC014A015B01E4
:100FC0004C845D846E847F842881222309F45CC074
:100FD000488959896A897B89481559056A057B05BD
:100FE00081F081149104A104B10469F41C861D866A
:100FF0001E861F86888A998AAA8ABB8A8A818F7DE3
:101000008A8381E046C023FF2CC0888D998DAA8DEC
:10101000BB8D88159905AA05BB05B0F1EE81FF814E
:101020003481375F7501640181E0C81AD108E10895
:10103000F108032E04C0F694E794D794C7940A9459
:10104000D2F78A8186FF36C08C8D9D8DAE8DBF8D87
:101050008C0D9D1DAE1DBF1D8C879D87AE87BF87E4
:10106000C9CF25FFDBCFEE81FF818681978125E007
:10107000880F991F2A95E1F7B0E0A0E0881599053F
:10108000AA05BB0508F0B6CF4C865D866E867F86C6
:1010900080E0DF91CF911F910F91FF90EF90DF9053
:1010A000CF90BF90AF909F908F907F906F905F9008
:1010B0004F900895DB01CA010197A109B10904C04D
:1010C000B695A795979587953A95D2F7C816D906FC
:1010D000EA06FB0620F0452B462B472B49F526FF59
:1010E00022C0848D958DA68DB78D8C879D87AE8708
:1010F000BF878E01045F1F4FC114D104E104F104C6
:1011000009F478CF4C855D856E857F8598018E8149
:101110009F810E944D0791E0C91AD108E108F108AA
:10112000181654F3B1CF8C8D9D8DAE8DBF8DDDCF54
:10113000C81AD90AEA0AFB0ADCCF3F924F925F92A3
:101140006F927F928F929F92AF92BF92CF92DF92D7
:10115000EF92FF920F931F93CF93DF9300D000D0B5
:10116000CDB7DEB75C01FC01448455846684778486
:1011700086809780F401C084D184E284F384C4140F
:10118000D504E604F704C0F47301620110E0FFEF38
:10119000CF1ADF0AEF0AFF0AF401808D918DA28D2C
:1011A000B38D8C159D05AE05BF0540F4111132C0FD
:1011B000C084D184E284F38411E0E9CF4C145D044F
:1011C0006E047F0439F19E012F5F3F4FB701A601E6
:1011D000C4010E944D0787FD1DC08823C1F289818B
:1011E0009A81AB81BC81892B8A2B8B2B81F61123B1
:1011F00029F0F401C086D186E286F3860FEF1FEF57
:101200002FEF3FE0B701A601C4010E94DB06382E94
:10121000811118C0312C832D0F900F900F900F90DB
:10122000DF91CF911F910F91FF90EF90DF90CF90C2
:10123000BF90AF909F908F907F906F905F904F90F6
:101240003F9008954114510461047104B9F4F5010B
:10125000C486D586E686F7868281411451046104EE
:101260007104B1F0FFEF4F1A5F0A6F0A7F0A4C1446
:101270005D046E047F0479F08F7B0BC097018601BB
:10128000B301A201C4010E94DB068111E0CFC2CFED
:101290008064F5018283F501828180688283BBCFFF
:1012A000EF92FF920F931F93CF93DF9300D000D064
:1012B0001F92CDB7DEB78C01FC018081882309F431
:1012C0007FC0828187FF69C0448955896689778993
:1012D0008681978121E080960E9498060097A1F46C
:1012E000F80181818160818380E0F801108212829F
:1012F0000F900F900F900F900F90DF91CF911F9153
:101300000F91FF90EF900895F801E480F580FFE0E1
:10131000EF22FF2425E0EE0CFF1C2A95E1F7E80EF2
:10132000F91EE114F104E1F2F7018081853EC1F27A
:10133000F801808183FF09C0808D918DA28DB38DCE
:10134000F701848F958FA68FB78FF801848D958DC7
:10135000A68DB78DF701938F828FB58BA48BE0910B
:101360000303F09104033097A1F0AE014B5F5F4F90
:10137000BE016F5F7F4FCE01039609958B819C81E3
:10138000F701918F808F938B828B89819A81978BC4
:10139000868BF80182818F778283F801E680F7805F
:1013A000C70180960E945A06882309F499CFF70155
:1013B000808191810E940905882309F491CF95CFFE
:1013C00081E093CF85ED8093BC008091BC0084FDCB
:1013D000FCCF10925103089520914402260F332729
:1013E000331F21323105ECF420915103FC0190E0D0
:1013F00080E0243069F082E00895A09144022191B8
:10140000AC014C5D5D4FA40FB52FB11D2C9301961F
:10141000861798F380914402680F6093440280E03D
:10142000089581E008950895E09173038091720317
:10143000E81730F4F0E0EE5AFC4F808190E0089518
:101440008FEF9FEF0895CF92DF92EF92FF920F936D
:101450001F93CF93DF937C01CB018A012091070377
:10146000222389F0EB016B01C40ED51ECC15DD05DE
:1014700069F06991D701ED91FC910190F081E02D27
:10148000C7010995F3CF642F0E94EC09C801DF91D1
:10149000CF911F910F91FF90EF90DF90CF90089523
:1014A000CF93DF931F92CDB7DEB7698320910703F7
:1014B0002223F9F020912A03203258F021E030E075
:1014C000FC013383228390E080E00F90DF91CF9185
:1014D000089580910803E82FF0E0E75FFC4F9981C1
:1014E00090838F5F8093080380932A0381E090E0CC
:1014F000ECCF61E0CE0101960E94EC09F7CF81E0CC
:101500000C946C01CF93DF93D82FC62F88E60E94EE
:10151000C9016D2F81E194E00E94500A6C2F81E196
:1015200094E00E94500A81E194E0DF91CF910C9405
:101530007F0A1F93CF93DF93EC0188E60E94C901D5
:1015400060E081E194E00E94500A2D811AE0822F30
:10155000612F0E94FA2C682F660F680F660F620FCA
:1015600081E194E00E94500A2C81822F612F0E9419
:10157000FA2C682F660F680F660F620F81E194E006
:101580000E94500A2B812F7B822F612F0E94FA2C00
:10159000682F660F680F660F620F81E194E00E946A
:1015A000500A6E8181E194E00E94500A2A81822FC4
:1015B000612F0E94FA2C682F660F680F660F620F6A
:1015C00081E194E00E94500A2981822F612F0E94BC
:1015D000FA2C682F660F680F660F620F81E194E0A6
:1015E0000E94500A2881822F612F0E94FA2C682FB6
:1015F000660F680F660F620F81E194E00E94500A47
:1016000081E194E0DF91CF911F910C947F0A411505
:10161000510529F4EAE7F0E080818F7780836A3012
:101620007105B9F0CB01880F991F880F991F80723F
:1016300067706860682B88E10FB6F894A89580936E
:1016400060000FBE60936000E0E6F0E0808180649F
:101650008083232BD9F483B7817F846083BFF89480
:1016600083B7816083BF85B7806685BF8F7D85BF67
:101670007894889583B78E7F83BF7894452B29F41F
:10168000EAE7F0E0808180688083089583B7817FF6
:10169000846083BFF89483B7816083BF7894889512
:1016A00083B78E7F83BF7894E9CFEF92FF920F9339
:1016B0001F93CF93DF93EC0169813881432F50E072
:1016C0002A81822F90E0E8E6F0E021E0261730F44E
:1016D0007491870F911D2F5F3196F8CF633018F00A
:1016E000337009F401966DE671E0469F9001479FC3
:1016F000300D569F300D1124215031094D5F5F4F41
:101700005695479556954795240F351F280F391F35
:10171000A8E1B0E00E94332C2B817B018C01E20E0A
:10172000F11C011D111DA8019701ACE3B0E00E945E
:10173000F12B2C817B018C01E20EF11C011D111D8E
:10174000A80197010E94F12B2D81620F711D811D4F
:10175000911D60587C4B8249974CDF91CF911F912E
:101760000F91FF90EF9008958F929F92AF92BF924A
:10177000CF92DF92EF92FF92CF93DF93EC016A0159
:101780007B0180E8C81A83E4D80A8DE6E80A88E37A
:10179000F80A8CE3882E912CA12CB12CC701B6013C
:1017A000A50194010E943C2D6D83CA01B901A501D8
:1017B00094010E943C2D6C83C701B60120E13EE0FC
:1017C00040E050E00E943C2DCA01B90128E130E020
:1017D00040E050E00E943C2D6B83C701B60120E839
:1017E00031E541E050E00E943C2D188263E97EEF34
:1017F0004881542F537081E009F080E090E0FC01B3
:10180000E359FE4F2E173F0740F0FB01E81BF90B91
:101810002E0F3F1F4F5F4883EBCF81E08983898183
:10182000682F6150770BFB01E859FF4FE49151118C
:1018300003C0823009F4EF5FF0E02E173F0720F07D
:101840002E1B3F0B8F5FEACF2F5F2A83DF91CF9153
:10185000FF90EF90DF90CF90BF90AF909F908F90D0
:1018600008951F93CF93DF93EA01122FDC011196A5
:101870008D919C91DC01ED91FC910280F381E02D32
:101880000995C817D90729F4812F0E946C0191E0AE
:10189000811190E0892FDF91CF911F910895CF930F
:1018A000DF93EC018B81882371F088810E94C9014C
:1018B00089819A810E947F0A91E0811190E0892FAD
:1018C000DF91CF9108950E947A0381E08B83CE014E
:1018D0000E944F0C982F8111E8CFF1CFFC0120819D
:1018E000243209F40196FC0120E0CF013191332329
:1018F00041F03A3231F02327F8CF305D08C0205D47
:101900000CC0322F32953F703A30B8F3395CFB018E
:1019100030832F702A3098F3295CFB0121830895CE
:10192000CF92DF92EF92FF920F931F93CF93DF93AB
:1019300000D0CDB7DEB70EE310E084E793E00E945D
:101940008402181619065CF584E793E00E9462028F
:10195000849741F584E28093C30204EC12E08AE3A9
:10196000C82ED12CEE24E394F12C84E793E00E945E
:10197000840218161906DCF4C60102968E159F051E
:10198000B4F084E793E00E9462028A3209F46701AE
:10199000F80181938F01FFEFEF1AFF0AE6CF03EC06
:1019A00012E0DDCF0150110941F680E017C0F801C7
:1019B0001082BE016F5F7F4FC8018E199F090E9480
:1019C0006E0CFC0180818A3281F7918189819813A4
:1019D000ECCF81E022819A812913E7CF0F900F90FD
:1019E000DF91CF911F910F91FF90EF90DF90CF90FB
:1019F0000895089590E080E0089541E00E942A0152
:101A000010927303809372030895CF93C82F88E6D2
:101A10000E94C9016C2F81E194E00E94500A81E18B
:101A200094E00E947F0A61E070E088E690E00E9406
:101A3000FD0C0E941701CF9108956CE18EE00E9489
:101A4000820A6AE070E080E090E00E94D10382E0C8
:101A50000E94050D682F6F7B82E00E94820A6AE077
:101A600070E080E090E00E94D10381E008950F9340
:101A70001F93CF93C82F8091BA060E94C9016C2F83
:101A80000C2E000C770B605C7F4F81E194E00E948C
:101A9000500A81E194E00E947F0ACF70C43009F4BB
:101AA00040C07CF5CC23C1F163E070E080E090E0C1
:101AB000C23079F18091BA060E94C90160E081E1EB
:101AC00094E00E94500A81E194E00E947F0A809194
:101AD000BA0663E070E090E00E94FD0C9091720302
:101AE00080917303981739F10E94170180930103C5
:101AF0000E941701809300030E9417018093FF0248
:101B0000EDCFC63099F06AE070E080E090E0C83038
:101B100089F60E94D103CECF61E070E080E090E0D2
:101B2000F8CF64E070E080E090E0F3CF66E070E032
:101B300080E090E0EECF6091010370E090E080E003
:101B4000CB01772766270091000310E030E020E00A
:101B5000322F212F102F0027600F711F821F931F1C
:101B60002091FF02620F711D811D911DCF911F9168
:101B70000F910895CF92DF92EF92FF920F931F93F0
:101B8000CF93DF9300D000D000D01F92CDB7DEB747
:101B900088E60E94C90160E081E194E00E94500A59
:101BA00081E194E00E947F0A68E070E088E690E0BE
:101BB0000E94FD0C0E9417019C0194E03595279529
:101BC0009A95E1F72F703327922F990F990F122FC3
:101BD000191B110F180F0E9417019C0144E0359545
:101BE00027954A95E1F72F703327922F990F990F78
:101BF000022F091B000F080F0E9417018F73282F57
:101C000030E054E0359527955A95E1F7922F990FDA
:101C1000990FF22EF91AFF0CF80E0E941701C82E28
:101C20000E9417019C0164E0359527956A95E1F7BC
:101C30002F703327922F990F990FE22EE91AEE0C8D
:101C4000E80E0E9417019C0174E0359527957A955E
:101C5000E1F72F703327922F990F990FD22ED91AAF
:101C6000DD0CD80E0E941701AC01E4E055954795B4
:101C7000EA95E1F74F705527942F990F990F242F6C
:101C8000291B220F280F3D2DA701B8018C2D90E0B4
:101C900027960FB6F894DEBF0FBECDBFDF91CF9170
:101CA0001F910F91FF90EF90DF90CF900895EF92EA
:101CB000FF920F931F93CF93DF9300D000D000D0FB
:101CC0001F92CDB7DEB77C018B010E94BA0D5C83F9
:101CD0006D837E83822F90E0449680389105D8F5FD
:101CE0003D30C8F54032B8F550E2359F90011124DF
:101CF000242B982F8827990F282B392BF701318314
:101D000020832E814D818C81883140F54C3330F514
:101D10002C3320F590E0982F8827990F990F990F71
:101D2000F0E24F9FA0011124842B952B30E03595D4
:101D30002795822B932BF8019183808327960FB6EA
:101D4000F894DEBF0FBECDBFDF91CF911F910F91F1
:101D5000FF90EF90089530E020E0D0CF90E080E059
:101D6000EACF0F931F93CF93DF9300D0CDB7DEB7A9
:101D700089836A830091BB061091BC06F8018481B7
:101D80009581029760F080810E94C90121E042E0C4
:101D900050E0BE016F5F7F4FC8010E94310C0F9071
:101DA0000F90DF91CF911F910F910895BF92CF9225
:101DB000DF92EF92FF920F931F93CF93DF93DC019B
:101DC0001496ED91FC91EF2B09F446C0E901C52E64
:101DD000B42E7B018C01FC0180810E94C90120E0AE
:101DE00041E050E0B701C8010E94310CD82E882391
:101DF00099F1D80114968D919C9115978C179D0798
:101E000058F141E06C2F8C910E942A0110927303CB
:101E1000809372038C171D06F9F4EB2CFC2CCE0D6D
:101E2000DF1DF80181819281DC01ED91FC9102843A
:101E3000F385E02D0995F70181937F01CE17DF0728
:101E400081F78D2DDF91CF911F910F91FF90EF9032
:101E5000DF90CF90BF900895D12CF3CFCF93DF9335
:101E600000D0CDB7DEB71A821982898322E030E034
:101E7000AE014F5F5F4FBA018091BB069091BC06E7
:101E80000E94D60E89819A819827892798270F90DA
:101E90000F90DF91CF910895CF93DF931F92CDB72D
:101EA000DEB7898321E030E0AE014F5F5F4FBA01BA
:101EB0008091BB069091BC060E94D60E89810F903E
:101EC000DF91CF910895CF93DF9384EF91E00E944B
:101ED000DB2BC5E0D3E0888385EF91E00E94DB2B0C
:101EE0008983CE01DF91CF910895FC01808181111A
:101EF0000FC080E2DF01982F1D929A95E9F7778352
:101F00006683DB0115969C91903129F0903211F097
:101F100080E0089580E4808381E082830895BF9209
:101F2000CF92DF92EF92FF920F931F93CF93DF93A5
:101F3000EC01C888D988EA88FB88D701C60155E03A
:101F4000B695A795979587955A95D1F7182F1F7035
:101F500011F06111E3C03A8130FFB6C02881422FF1
:101F60004870B42E23FF19C0888D998DAA8DBB8D22
:101F70008C199D09AE09BF0982309105A105B105F3
:101F8000D8F40097C9F430E020E0281B390B213049
:101F900009F4A6C090E080E0B7C025FF0DC0EE8137
:101FA000FF818681978145E0880F991F4A95E1F767
:101FB0008C159D0509F48CC0EE81FF81B701A60147
:101FC00089E076956795579547958A95D1F725FFCE
:101FD00021C0848D958DA68DB78D480F591F6A1F1E
:101FE0007B1F8E819F8120E080960E949806892B1E
:101FF00009F46AC088899989AA89BB890196A11DBB
:10200000B11D888B998BAA8BBB8B21E030E090E0CF
:1020100080E0BBCF03810423C6019170892B81F43A
:1020200001110EC0CD28CE28CF2881F526FF29C06A
:10203000848D958DA68DB78D8C879D87AE87BF8744
:10204000EE81FF814C855D856E857F85425051090B
:1020500061097109848104C0440F551F661F771FF1
:102060008A95D2F780899189A289B389840F951FB7
:10207000A61FB71FAC01BD01400F511D611D711D91
:10208000B0CF8C8D9D8DAE8DBF8DD6CF4C855D85AF
:102090006E857F85BB2059F036FF09C04F5F5F4FCB
:1020A0006F4F7F4F4C875D876E877F87C9CF9E01BB
:1020B000245F3F4FCF010E944D0787FD05C081116E
:1020C000BFCF8881807739F489818260898362CF2C
:1020D00030E020E09CCF21E030E081E090E055CF7F
:1020E00088899989AA89BB894F96A11DB11D888BC2
:1020F000998BAA8BBB8B8E819F818B9640E2149F1C
:1021000090011124820F931FDF91CF911F910F91A6
:10211000FF90EF90DF90CF90BF90089580E2C80EBF
:10212000D11CE11CF11CC88AD98AEA8AFB8AE3CF58
:102130002F923F924F925F926F927F928F929F92D7
:10214000AF92BF92CF92DF92EF92FF920F931F93C5
:10215000CF93DF93CDB7DEB72E970FB6F894DEBFDF
:102160000FBECDBF8C01FB01DC018C91807711F497
:1021700080E068C3809121048111FACF8180928030
:1021800080818370AA24A394882349F0C4010C960B
:102190006DE070E00E94062DAA24A394A60E4F8342
:1021A0006F0140E050E0BA01C8010E94CD071886D7
:1021B0001A861E82212CB12C312C1986F6013696F6
:1021C000FC87EB878A2D8150990B9E878D87D801DC
:1021D00050964D905D906D907C90539725E076944D
:1021E0006794579447942A95D1F7720161E0C8012A
:1021F0000E948F0FFC01892B09F081C0F8018181B9
:102200008111B6CFEF81E4FFB3CF8E2F8370815061
:10221000823008F0ADCFBB2011F0E884FA84BA1404
:1022200008F07AC160E0C8010E948F0F892B09F085
:1022300050C1D80111968C9181119ACFF8018081FB
:1022400085FD96CF80899189A289B38981159E4F9A
:10225000AF41B10508F08CCFC8010E949D088823CA
:1022600009F486CFD8011696ED91FC9117971C962C
:102270002D903D904D905C901F97B2E02B1A310845
:1022800041085108848104C0220C331C441C551C95
:102290008A95D2F780899189A289B389280E391E3F
:1022A0004A1E5B1E25E0B201A101CF0180960E946B
:1022B00098063C01009709F45BCFFC0180E092E0B6
:1022C00011920197E9F791E09E83D8011696ED915E
:1022D000FC918281BE81B81708F0FDC09301B20164
:1022E000A1014B0F511D611D711D808191810E94C3
:1022F000C905882309F43CCF9E819F5FE5CF2081EB
:10230000253E11F021110EC0B11002C048865A8638
:10231000BA1408F4B394222309F474CF253E21F4AF
:10232000312C55CFBA1470F12E32D1F333853F30B2
:1023300009F05FC0311028C026FF49CF2F71222E2F
:102340008D859E852817190609F041CF95859E83B6
:10235000322E822D8150990BAC019DE0949F90010B
:10236000959F300D112428153905D0F6F12CA4E0E5
:10237000AF1590F08181928182169306B1F4892B7A
:1023800079F625CFB12CD0CF2A942211C9CF25853B
:10239000AE812A17F1F2C4CFBAE0BF1518F08481DC
:1023A0009581EACF86819781E7CF8F3F910511F024
:1023B00008F0B6CF4FEB480F4A3108F4805EB90100
:1023C0006F5F7F4FD60113964D915C91240F351F9F
:1023D000D9019C912FEB290F2A3108F4905E9813B4
:1023E0009FCFF3943296BDE0FB1609F4F0CE9B012B
:1023F000BECF33FD95CF332009F45AC021E022121D
:10240000B7CE9F01255F3F4F90E090FB979597F9DE
:102410008191980F2E173F07C1F78E818913A8CE9F
:10242000BF81B6FDA5CEE1E2F4E080E2DF011D92BE
:102430008A95E9F7F801A681B781B0932804A093A3
:102440002704F0922604E0922504448D558D668D74
:10245000778D4093290450932A0460932B04709342
:102460002C04FD01BB962FE0E222FF2435E0EE0CA8
:10247000FF1C3A95E1F7EE0DFF1D838583FD13C028
:10248000982F9771887109F498C190932104309224
:1024900024048F818370813009F4EFC108F48FC167
:1024A000823009F4E8C1109221041092230460CE16
:1024B0004BE050E06B857C85CF010E94532E892B29
:1024C00009F085CED6018C9180FFAACF91E0998743
:1024D0007ECEB394A4CE848120E032E002C0220FED
:1024E000331F8A95E2F7D80150964D915D916D9119
:1024F0007C915397420F531F611D711D50964D9350
:102500005D936D937C9353978281823028F4B0E180
:10251000BB0EBA1408F492CEE985EE2309F458C034
:10252000D6011596BC9082E0682E712C9EE7392E5C
:102530002601B6E04B0E511CF601818192819C016F
:10254000260D371D0380F481E02D8E0F9F1F8E17FF
:102550009F0779F0A901B5E0440F551FBA95E1F73F
:10256000240F351F4191042E000C550B24273527CD
:10257000EECFF3E0FB1510F4A3E0BA2E94E09B0D30
:10258000822F8F708A3008F08FC0805DF601E90FCE
:10259000F11D8683F4E036952795FA95E1F7915081
:1025A000B91670F3F601EB0DF11D368240E050E0F4
:1025B000BA01C8010E94CD0761E0C8010E948F0FD7
:1025C000009709F073C0D80111968C918111D0CD7C
:1025D000A70170E060E0E5E0440F551F661F771F1C
:1025E000EA95D1F7C8010E94CD07882309F4C0CD30
:1025F00033243A943A0CB32CA32C6894A6F85FE0E9
:10260000752E760181E1E80EF11C6DE0662EBB208F
:1026100009F479C060E0C8010E948F0FFC01892B8A
:1026200009F4A6CDD80116962D913C91D90190962A
:102630008C919097816090968C938A2D3B108B2D76
:10264000808373861486D601169690E090FB97954A
:1026500097F92D91920FEA16FB06C1F79587138E15
:10266000128ED60113962D913C918F718150990B4A
:10267000689EA001699E500D112480E048155905FF
:1026800078F5D901A40FB51F6C91062E000C770BBD
:10269000853088F5728361838F5F4F5F5F4F32961D
:1026A0008D3061F7BA94B3CF895C70CFFC01208183
:1026B000222309F48DCF238523FD7ECF4BE050E00C
:1026C000BC01C2010E94532E892B09F075CFFFEF88
:1026D0006F1A7F0A24E66216710409F02DCF48CDE7
:1026E00061E070E08416950611F470E060E0719589
:1026F00061957109CDCF8B3018F475836483CCCF8D
:1027000077836683C9CFF8014088518862887388CF
:1027100060E0C8010E948F0F5C01892B09F428CD6D
:1027200080E2D5011D928A95E9F7F60136968BE095
:10273000D50101900D928A95E1F7F60180818871AB
:10274000D5011C968C931C97E0910303F091040330
:10275000309721F1AE014B5F5F4FBE016F5F7F4F3E
:10276000CE01039609958B819C81F501918B808B1D
:1027700089819A81978786878D81858745E07694C0
:102780006794579447944A95D1F77201D8011696E9
:10279000ED91FC9180A1816080A345CE81E296E518
:1027A00051969C938E93509759969C938E935897DD
:1027B00053969C938E935297E1CF986066CE81E0BA
:1027C000809323049091230491FF05C080912104FC
:1027D000817109F068CE4F814870492B40932304E2
:1027E00097968D919D910D90BC91A02D809335046D
:1027F00090933604A0933704B09338048489958964
:10280000B0E0A0E0DC0199278827428D538D70E06D
:1028100060E0842B952BA62BB72B80933D049093DF
:102820003E04A0933F04B0934004848D958DA68D03
:10283000B78D8093390490933A04A0933B04B093EE
:102840003C0481E02E960FB6F894DEBF0FBECDBFDC
:10285000DF91CF911F910F91FF90EF90DF90CF907C
:10286000BF90AF909F908F907F906F905F904F90B0
:102870003F902F90089583E0A3CF82E0A1CF2F92C5
:102880003F924F925F926F927F928F929F92AF9200
:10289000BF92CF92DF92EF92FF920F931F93CF934D
:1028A000DF93CDB7DEB7E6970FB6F894DEBF0FBE65
:1028B000CDBFD62E19821A821B8220912104222399
:1028C000D1F080E0E6960FB6F894DEBF0FBECDBF24
:1028D000DF91CF911F910F91FF90EF90DF90CF90FC
:1028E000BF90AF909F908F907F906F905F904F9030
:1028F0003F902F900895DC012C91207711F32091C7
:102900000001E0E0F1E000E011E02F32B9F48F01C6
:1029100021912F32E1F3DC0116966D917C9121110A
:1029200005C081E294E00E94750FCCCFCE010196E4
:102930000E94750F882329F2CE010196FE01F296BE
:10294000FEABEDABF801AF014F5F5F4F208120324E
:1029500009F497C0FDA3ECA3AF01BA016E1B7F0B76
:102960008A01DA012D91AD01222371F02F3209F095
:102970008AC09F01260F371F8901D9014D919D0102
:102980004032D1F34F32C1F3DB01AE0FBF1FBD01A7
:102990006E1B7F0BAE17BF0709F48FC02E912E322E
:1029A000B1F32032A1F36F3F710511F00CF089CF24
:1029B0007BA36AA3DE0197965D0120E22D93EDA82B
:1029C000FEA8AE15BF05D1F7DF019D012E1B3F0B01
:1029D0004D914E32D1F34032C1F3882483942115B6
:1029E000310509F0812CAB01415051097F01E60E00
:1029F000F71E4F3F540709F063C09EA0612CA7E06B
:102A00007A2E312C512CB8E04B2E261737070CF0BC
:102A100095C0DF01A20FB31FEC90ECAAAE2DA0323F
:102A200009F48AC0AE3221F42417350709F084C0B6
:102A3000CCA8BC2DB232A1F0BC3791F0BA52B6305E
:102A400018F4AC2DAD3261F4BCA9BA53B63040F0E5
:102A5000BCA9BB55B33020F0BCA9B152BE35D0F1F2
:102A60002417350709F0ADC0BAE0EB2E7E1409F447
:102A7000B3C09A01AAE07A2EB8E03B2EA0E14A2E1C
:102A800046C0FA0160CF2C3509F41BCF322F377FB7
:102A9000323209F416CF2A3309F413CF322F3F7B99
:102AA0003C3309F40ECF32EC320F323008F409CF48
:102AB00020522F3508F451CF04CF70E060E078CF7A
:102AC000D701CE907D01BEE2CB1609F496CF4150DE
:102AD00051098FCF2417350739F2731408F474C0E5
:102AE000BCA9B156BA31D8F4BCA9B052BCAB642869
:102AF00022242394230C7501E30CF11CD701ECA8CC
:102B0000EC92A6E0FA2E322CF21408F0922C2F5FF1
:102B10003F4F7BCF812CAFE5ACABBFE5CB2EBFEBFE
:102B2000BC0DBA3128F75428E3CF9A01BAE07B2EC6
:102B3000A8E03A2EB0E14B2E812CE9CF9EA22FA126
:102B4000203209F4BECE882011F1562011F022E087
:102B5000622E69A2F8012081222361F140E0BE01CA
:102B60006F5D7F4F0E949810882309F4AACE80E2FF
:102B7000E1E2F4E0DE01119601900D928A95E1F711
:102B800081E294E00E945009CE010196DBCE21E063
:102B900029A3292D30E0F501E20FF31F4EE7408312
:102BA00048E250E04C0F5D1F240F351F41E3D9016F
:102BB0004C93D0CF4D2DBE016F5D7F4F0E9498107A
:102BC00081CE731408F0A6CFAAE0FA2E7F1421F06C
:102BD000421753070CF0A9CF9EA2812CB0CF4F9281
:102BE0005F926F927F928F929F92AF92BF92CF929D
:102BF000DF92EF92FF920F931F93CF93DF93EC013D
:102C0000D62E8E8181FF10C07E0194E0E90EF11C6A
:102C100083FD20C08C889D88AE88BF88EFEF8E161C
:102C20009E06AE06BE0601F58D8181608D838FEF15
:102C30009FEFDF91CF911F910F91FF90EF90DF9069
:102C4000CF90BF90AF909F908F907F906F905F904C
:102C50004F9008954C8D5D8D6E8D7F8DC7010E94C4
:102C6000CD078111D7CFE0CF8A859B85FC01C3803A
:102C7000B501A40129E076956795579547952A9562
:102C8000D1F7C42284011170C11023C04889598929
:102C90006A897B890115110509F0D4C041155105D8
:102CA0006105710509F4A0C02E8126FF73C04C8C0C
:102CB0005D8C6E8C7F8C84149504A604B70408F098
:102CC00069C04F5F5F4F6F4F7F4F488B598B6A8B47
:102CD0007B8BEA85FB85488959896A897B894250C3
:102CE000510961097109848104C0440F551F661F91
:102CF000771F8A95D2F780899189A289B389840F39
:102D0000951FA61FB71FAC01BD014C0D511D611DC4
:102D1000711D0115110509F0A9C08C889D88AE8828
:102D2000BF888C8D9D8DAE8DBF8D88169906AA06A5
:102D3000BB0618F48E8185FF99C025E0CF018096EF
:102D40000E949806009709F46FCF800F911FFC0135
:102D5000D0820F3F114009F463C08C899D89AE89F0
:102D6000BF890196A11DB11D8C8B9D8BAE8BBF8B36
:102D70004C8D5D8D6E8D7F8D481759076A077B07D7
:102D800008F056C08C8F9D8FAE8FBF8F8E8180686C
:102D90008E8355C09E01205F3F4F0E944D0787FDE7
:102DA00043CF811106C0C7010E949D08882309F402
:102DB0003BCFEA85FB85488959896A897B894250DE
:102DC000510961097109848104C0440F551F661FB0
:102DD000771F8A95D2F780899189A289B389480F94
:102DE000591F6A1F7B1F99CF88A199A1AAA1BBA1D6
:102DF0000097A105B10579F4C7010E949D088823B9
:102E000009F412CF88899989AA89BB8988A399A3D3
:102E1000AAA3BBA35ECF888B998BAA8BBB8B59CF00
:102E20008A859B8580960E945A06811196CFFCCE9A
:102E30008091030390910403892B09F0A7CF81E0CF
:102E400090E0F7CE4250510961097109848104C0B4
:102E5000440F551F661F771F8A95D2F78089918985
:102E6000A289B389480F591F6A1F7B1F21E066CFD3
:102E7000FB0101900020E9F73197AF01461B570B8A
:102E8000DC01ED91FC910280F381E02D09940F9318
:102E90001F93CF93DF93EC010E9402028C0165E542
:102EA00071E0CE010E943817800F911FDF91CF9102
:102EB0001F910F9108958F929F92AF92BF92EF92C0
:102EC000FF920F931F93CF93DF93CDB7DEB7A197F8
:102ED0000FB6F894DEBF0FBECDBF7C01FA01CB0167
:102EE00019A2223008F42AE08E010F5D1F4F822EB6
:102EF000912CB12CA12CBF01A50194010E941A2D87
:102F0000F901CA016A300CF5605DD8016E938D013C
:102F1000232B242B252B79F790E080E0109721F0CC
:102F2000BD01C7010E943817A1960FB6F894DEBF05
:102F30000FBECDBFDF91CF911F910F91FF90EF900A
:102F4000BF90AF909F908F900895695CDECF0F93F4
:102F50001F93CF93DF9300D0CDB7DEB78C01BE01B6
:102F60006F5F7F4F0E946E0C64E284E793E00E94E3
:102F70000C03B80184E793E00E9438176AE284E703
:102F800093E00E940C03698184E793E00E940C03A4
:102F90006A8184E793E00E940C0365E571E084E7B1
:102FA00093E00E94381784E793E00E940E030F908D
:102FB0000F90DF91CF911F910F91089521E030E0A4
:102FC00050E040E064E070E082E093E00E94070B94
:102FD00088E591E00E94A7178FE00E94050D682FF9
:102FE0006E7F8FE00E94820A20910D0130910E01C8
:102FF00040910F0150911001A8EEB3E00E94F12B17
:103000000C94D1030F931F93CF93DF93EC010E9495
:1030100038178C0165E571E0CE010E943817800FEA
:10302000911FDF91CF911F910F910895FF920F9300
:103030001F93CF93DF93EC01F62E08811981C8010D
:103040000E94DB2BF81621F06F2DC8010E94E32BA4
:10305000CE01DF91CF911F910F91FF900895EF92D4
:10306000FF920F931F93CF93DF9300D0CDB7DEB7BE
:103070008DE0E82E81E0F82E10E000E01A8309834D
:10308000F70161917F01CE0101960E9416180F5F32
:103090001F4F0430110591F78DE091E00F900F90D4
:1030A000DF91CF911F910F91FF90EF9008951F92A4
:1030B0000F920FB60F9211242F933F934F935F936C
:1030C0006F937F938F939F93AF93BF93EF93FF93F0
:1030D00084E793E00E94A402FF91EF91BF91AF912A
:1030E0009F918F917F916F915F914F913F912F9120
:1030F0000F900FBE0F901F9018951F920F920FB652
:103100000F9211242F938F939F93EF93FF93E0914E
:103110008403F09185038081E0918A03F0918B0311
:1031200082FD1BC0908180918D038F5F8F732091F2
:103130008E03821741F0E0918D03F0E0EC58FC4FD4
:10314000958F80938D03FF91EF919F918F912F9198
:103150000F900FBE0F901F9018958081F4CF1F9293
:103160000F920FB60F9211242F933F938F939F933B
:10317000AF93BF938091680290916902A0916A0217
:10318000B0916B023091670226E0230F2D3768F172
:1031900029E8230F0396A11DB11D20936702809398
:1031A000680290936902A0936A02B0936B028091C7
:1031B0006C0290916D02A0916E02B0916F02019627
:1031C000A11DB11D80936C0290936D02A0936E02BD
:1031D000B0936F02BF91AF919F918F913F912F91CB
:1031E0000F900FBE0F901F9018950296A11DB11D54
:1031F000D4CF1F920F920FB60F9211242F933F93AB
:103200004F935F936F937F938F939F93AF93BF93EE
:10321000EF93FF938091B900887F803609F44AC00C
:10322000F0F5883209F4A7C018F5803109F49BC085
:10323000B8F4882309F4F9C0883009F494C0FF91E8
:10324000EF91BF91AF919F918F917F916F915F911E
:103250004F913F912F910F900FBE0F901F90189597
:10326000883109F488C0803251F780934F0314C02D
:10327000803409F49DC040F48033B9F38833F9F603
:1032800080934F0385ECB0C0803509F485C0883544
:1032900009F496C0883499F60E94E209D0CF8839A3
:1032A00009F48CC038F5883729F050F4883611F0CD
:1032B000803729F683E0809351031092660257C04D
:1032C000883809F47BC0803919F0803809F0B7CF0D
:1032D00080916602803208F071C0E091660281E060
:1032E0008E0F809366028091BB00F0E0EA5BFD4F99
:1032F00080833DC0803B39F0E0F4803A09F479C026
:10330000883A09F09CCF84E08093510310924502E3
:1033100010924402E091C102F091C202099580919D
:10332000440281110FC081E0809344021092240274
:1033300009C0803C09F4A6CF883C09F4A3CF883BA0
:1033400009F07DCFE091450281E08E0F8093450228
:10335000F0E0EC5DFD4F80818093BB0090914502D1
:103360008091440229C080914C038093BB0085EC7E
:103370008093BC0064CF90914E0380914D039817C9
:1033800058F5E0914E0381E08E0F80934E03F0E0FC
:10339000E55DFC4F8081E9CFE0914E0381E08E0F27
:1033A00080934E038091BB00F0E0E55DFC4F80838D
:1033B00090914E0380914D039817C8F285E8D8CFBD
:1033C000E0914E0381E08E0F80934E038091BB000D
:1033D000F0E0E55DFC4F80838091500381115CCF6C
:1033E00081E080934B0384EA8093BC0010925103E8
:1033F00026CF85EC8093BC00109251038091660229
:10340000803230F4E0916602F0E0EA5BFD4F10821A
:103410006091660270E0E091BF02F091C00286E424
:1034200092E00995109266020ACF10924F0334CFB2
:103430001F920F920FB60F9211248F930FB6F8942C
:10344000A895809160008861809360001092600070
:103450000FBE8F910F900FBE0F901F901895FC011B
:10346000908190539A3008F090E0818180532AE057
:10347000929F800D11240895CF93DF93E4E7F3E04A
:103480001382128288EE93E0A0E0B0E084839583FB
:10349000A683B78329E231E03183208325EC30E035
:1034A0003587248724EC30E03787268720EC30E00E
:1034B000318B208B21EC30E0338B228B22EC30E0FF
:1034C000358B248B26EC30E0378B268B118E128EB9
:1034D000138E148EE1E1F4E01382128284839583CB
:1034E000A683B7838BE391E0918380838CE691E0A0
:1034F0000E942F1ACDEBD6E0888383E0898387E68C
:1035000091E00E942F1A8A838FE691E00E942F1A81
:103510008B8382E791E00E942F1A8C8385E791E0EC
:103520000E942F1A8D831092BC061092BB06E4EA0B
:10353000F6E086E7868B80E090E1958B848B40E017
:1035400050E0BA018DE996E00E94B40B1092460457
:1035500010926C0610926D0610926E0680E58093B4
:10356000900681E0809391068093970689E280938C
:10357000990610929C06EDE1F4E013821282148207
:10358000158216828DE491E091838083DF91CF9143
:103590000895CF93DF93CDB7DEB7E0970FB6F894D9
:1035A000DEBF0FBECDBF789484B5836084BD85B582
:1035B000836085BD80916E00816080936E0092E093
:1035C000909381008091810081608093810080913F
:1035D00080008160809380008091B100846080933E
:1035E000B1008091B00081608093B00086E8809344
:1035F0007A001092C100E0918403F09185039083DA
:10360000E0918003F09181031082E0918203F091B8
:10361000830383E0808310928C03E0918803F09110
:10362000890386E08083E0918603F091870380819F
:1036300088698083E0918603F091870380818F7D84
:10364000808382E390E0A0E0B0E0809378039093E1
:103650007903A0937A03B0937B030E947A030E94BC
:10366000630F86EF91E00E94DB2B8F8787EF91E05D
:103670000E94DB2B888B88EF91E00E94DB2B898BEB
:1036800089EF91E00E94DB2B8A8B8DEB96E00E9404
:10369000550B0F85188929893A89601771078207A8
:1036A000930709F462C08DEB96E00E94550B698385
:1036B0007A838B839C838E010F5F1F4F680106EF17
:1036C00011E019870887D6016D916D01CE0108962A
:1036D0000E9416180F5F1F4F0A3FB1E01B0789F7C2
:1036E0000E942F1868E771E084E793E00E940218B7
:1036F0000E941D0D91E0811101C090E080917C023B
:1037000090FB81F980937C028DEB96E00E94990AF0
:1037100004EF11E065EFC62EDD24D39480910503FC
:103720009091060301978E3F9F4F08F4F9C06CE318
:1037300071E084E793E00E94471784E793E00E94DA
:103740008402892BD1F30E941004FC0197FDDDC097
:103750008D32910509F470C0C0970A9708F46CC0C7
:1037600084E793E00E946202EECF10927B0203E0B6
:1037700010E079E8C72E71E0D72EE3ECAE2EE2E040
:10378000BE2E809106038F93809105038F93DF9265
:10379000CF92BF92AF920E94A72E83EC92E00E943C
:1037A000A71762E370E080E090E00E94D1030E94DE
:1037B000900C0F900F900F900F900F900F90882308
:1037C000D1F048E050E064E971E083EC92E00E94BF
:1037D000692E892B81F40E941D0D91E0811101C099
:1037E00090E080917C0290FB81F980937C0281E0E3
:1037F00080937B028DCF0150110919F690E080E093
:103800000E94DB2B80930D0181E090E00E94DB2B76
:1038100080930E0182E090E00E94DB2B80930F01E9
:1038200083E090E00E94DB2B8093100180917C026A
:10383000826080937C026CCF812C912C5401712C7E
:10384000E130F105D9F0ED32F10509F45BC0CF01AB
:10385000C0970A9798F4AAE0B0E0A50194010E94ED
:10386000F12B4F01FF0FAA08BB08860E971EA81E5A
:10387000B91EF0E38F1A9108A108B10884E793E01C
:103880000E9462020E941004FC01C0970A97C0F2D5
:10389000E130F105A9F2772041F0B094A094909422
:1038A0008094811C911CA11CB11CC40101978E3F06
:1038B0009F4F78F51A830983682DCE0101960E94E7
:1038C0001618DA82C982692DCE0101960E94161857
:1038D0000E94630F68E171E084E793E00E940202B6
:1038E000409105035091060370E060E02AE084E710
:1038F00093E00E945B1765E571E084E793E00E9426
:1039000038170CCF77247394B9CF812C912C5401A4
:10391000CCCF61E371E084E793E00E944717FECECD
:103920000E9404048B0110929A061092990610923C
:103930009C068AE0809398060E94D30161E0809102
:1039400098060E942E0382E58093900681E0809382
:103950009106DFB6F89480917002811124C0EDE8E1
:10396000F1E08491E4EAF1E09491E82FF0E0EE0FC9
:10397000FF1FE758FE4FA591B491EC91E92321F484
:1039800061E08AE00E942E038AE00E94D3018CB598
:1039900080618CBD8CB580648CBD8DE00E94D301AC
:1039A0008BE00E94D301809170028F5F8093700240
:1039B000DFBE1092960681E08093970680919A066A
:1039C000811104C08EE896E00E94420461E080917B
:1039D00098060E942E034AE0D42E8FEF0E945204D4
:1039E000DA94D110FACF60E0809198060E942E03FD
:1039F0003AE0D32E20E030E0A90160E08EE896E0C6
:103A00000E94BE04C82E31E0831709F4E5C0DA94A1
:103A1000D110D4C081E0809399068EE896E00E9490
:103A200077048EE896E090938D0680938C06109133
:103A30009906112309F43CC180E090917C0280FB3F
:103A400090F990937C021F928F938DE991E09F9360
:103A50008F9303EC12E01F930F930E94A72EC801CF
:103A60000E94A71780917C02869581701F928F9388
:103A700087EA91E09F938F931F930F930E94A72E45
:103A8000C8010E94A7178091BB069091BC060FB693
:103A9000F894DEBF0FBECDBF009711F00E947127D2
:103AA00086E090E00E94D5268C0183E1D8018C93BA
:103AB00081E194E012969C938E93119713961C9239
:103AC000139780E290E015969C938E931497109331
:103AD000BC060093BB060E947A0381E0F801838351
:103AE000C8010E944F0C182F811115C210E080915F
:103AF0007C0210FB82F980937C0265E083E80E94DF
:103B0000B10E67E082E80E94B10E80917C0282FBD8
:103B1000882780F91F928F9382EB91E09F938F9378
:103B200083EC92E09F938F930E94A72E83EC92E008
:103B30000E94A7170E947A038091BA060E94C901C9
:103B40006EE181E194E00E94500A81E194E00E94DC
:103B50007F0A6AE070E080E090E00E94D1030DE906
:103B600012E00F900F900F900F900F900F90680140
:103B700030EAB32E8091BA060E94C9016B2D81E113
:103B800094E00E94500A81E194E00E947F0A8091B3
:103B9000BA0662E070E090E00E94FD0C9091720322
:103BA00080917303981709F4CAC10E94170180938A
:103BB00001030E9417018093FF02F0CF8DEF0E9456
:103BC000520428E0A22E22E0B22E0E94590441E0C5
:103BD000A41AB108D1F70ECF2AEA31E040E050E054
:103BE00068E08EE896E00E94BE0482FD10C082E08C
:103BF00080939C0694E0D92E0E94590480939B06E2
:103C0000DA94D110F9CF8A3A21F086E004CFC0923D
:103C10009C0680919C06812C912C5401823029F4C1
:103C2000812C912CA12C80E4B82E20E030E0A90159
:103C300067E38EE896E00E94BE04A501940169E264
:103C40008EE896E00E94BE04882349F00E94040496
:103C5000601B710B613D774040F387E1DCCE8091C2
:103C60009C068230D1F420E030E0A9016AE38EE8BE
:103C700096E00E94BE04882311F082E1CCCE0E941F
:103C80005904807C803C19F483E080939C060E9458
:103C900059040E9459040E9459048EE896E00E943B
:103CA000770480E58093900681E080939106B9CEF9
:103CB00090934204809341041092460441E050E006
:103CC00060E070E04093490450934A0460934B04D1
:103CD00070934C0490936304809362041092610487
:103CE0008FEF9FEFDC018093680490936904A093A9
:103CF0006A04B0936B0420E040E050E0BA0181E632
:103D000094E00E949806009709F496CEFC01E254D4
:103D1000FE4F2481222309F48FCE20812F7709F0D2
:103D20008BCE8A539E4FDC018D909D90AD90BC90C0
:103D3000B501A40181E694E00E949806FC01892B5C
:103D400009F47ACE8089823009F076CE8385948515
:103D50008115924009F070CE9585909343048FEFC2
:103D6000890F8093440481E0981749F01F5F193050
:103D700021F488E0809345045FCE880FF5CF10933F
:103D8000450486899789B0E0A0E080934D04909324
:103D90004E04A0934F04B0935004892B8A2B8B2B95
:103DA00061F484A195A1A6A1B7A180934D0490933D
:103DB0004E04A0934F04B093500486859785240148
:103DC0003501480E591E611C711C409255045092D9
:103DD00056046092570470925804218932893093B6
:103DE00048042093470480914D0490914E04A09183
:103DF0004F04B0915004AC01BD01440F551F661F24
:103E0000771F440D551D661D771D40935D0450932B
:103E10005E0460935F047093600405E0220F331F1B
:103E20000A95E1F721503E4F232F33272695420F65
:103E3000531F611D711D40935104509352046093B0
:103E400053047093540443885488712C612C41149A
:103E500051046104710421F440A051A062A073A038
:103E6000841A950AA60AB70A840C951CA61CB71CCE
:103E700004C0B694A794979487941A95D2F7B50185
:103E8000A4014F5F5F4F6F4F7F4F40935904509392
:103E90005A0460935B0470935C0405EF80160FE096
:103EA0009006A104B10420F48CE080934604C4CDB4
:103EB00020E115EF81161FEF9106A104B10468F00F
:103EC00044A555A566A577A540935D0450935E046F
:103ED00060935F047093600420E220934604809313
:103EE000640490936504A0936604B09367048CE621
:103EF00096E00E94500961E474E08CE696E00E942E
:103F0000750F882309F498CD21E434E03093AE0294
:103F10002093AD0292CD81E80E944C0F807F8032C9
:103F200009F0E4CD64E183E80E94B10E63E082E829
:103F30000E94B10E68E089E80E94B10ED8CD809150
:103F4000010390E0982F88272091FF02820F911D96
:103F5000D6018D939D936D01B394B394B0EBBB12D6
:103F600009CE6091AB027091AC02A62FCB018827DD
:103F70009093AC028093AB0230E020E050E040E050
:103F8000FA01EE7FE356FD4F9081818140FF23C00F
:103F9000292788E0F901220F331FF7FF02C0E0E371
:103FA0003E278150B9F74F5F5F4F4031510541F7D0
:103FB0007093AC026093AB02932F92959F70F801BF
:103FC000219131918F01232B51F4F2E00D3A1F071B
:103FD000B1F780E007C0F12C28273F25DACF81E038
:103FE000A913F7CF90917C0280FB93F990937C0208
:103FF0001F928F938EEB91E09F938F9383EC92E0CF
:104000009F938F930E94A72E83EC92E00E94A717A4
:104010000F900F900F900F900F900F9080917C0257
:104020008F3081F165E071E084E793E00E944717EB
:104030000E94BA0D288739874A875B876C877D87FE
:104040008E87CE0108960E94550B00910D011091AC
:104050000E0120910F0130911001AB01BC01400F06
:10406000511F621F731FCE0101960E94B40B87E09F
:10407000FE013196ADE9B6E001900D928A95E1F727
:104080000E94DE1780917B02882309F467C088ECC8
:1040900091E00E94A71764E670E080E090E00E9443
:1040A000D1030E94900C8823B1F36EEC71E083EC95
:1040B00092E00E94212860ED71E00E94602E892B21
:1040C00009F04CC06EEC71E090E080E00E94212885
:1040D0000E94FA27609373027093740280937502B2
:1040E000909376026EEC71E090E080E00E942128CF
:1040F0000E94FA2760930D0170930E0180930F01C7
:104100009093100165ED71E090E080E00E9421281D
:104110000E94FA2760937702709378028093790265
:1041200090937A02409173025091740260917502EB
:1041300070917602CE0101960E94B40BCE010196D9
:104140000E94990A0E942F1887ED91E00E94A717FC
:1041500064E670E080E090E00E94D1034091770235
:10416000509178026091790270917A0214161506C6
:1041700016061706DCF48091730290917402A091E8
:104180007502B0917602480F591F6A1F7B1FCE013E
:1041900001960E94B40B87E0FE013196ADE9B6E0CE
:1041A00001900D928A95E1F70E94DE170E94BA0DE8
:1041B00029833A834B835C836D837E838F831F9235
:1041C0004F938A811F928F93898190E08053984FFB
:1041D0009F938F9383EE91E09F938F931F928DE037
:1041E0008F9380E091E09F938F930E94772E8BEFC7
:1041F00091E0909304038093030387E59EE09093FE
:104200007202809371028091AD029091AE020FB65E
:10421000F894DEBF0FBECDBF009709F45EC061E524
:10422000855D9D4F0E943F14882309F456C08091FC
:10423000BF061F928F938091BE061F928F9380912D
:10424000BD0690E08053984F9F938F9384EF91E049
:104250009F938F931F928BE08F9383EC92E09F93B9
:104260008F930E94772E69ED70E08DE194E00E94BB
:10427000471766EC70E08DE194E00E94020263EC67
:1042800072E08DE194E00E94021863E072E08DE13B
:1042900094E00E943817409105035091060370E0A6
:1042A00060E02AE08DE194E00E945B1765E571E033
:1042B0008DE194E00E94381765E571E08DE194E0AE
:1042C0000E9438176BE870E08DE194E00E94471778
:1042D0000FB6F894DEBF0FBECDBF80E091E09F9394
:1042E0008F9387E191E09F938F9383EC92E09F936C
:1042F0008F930E94A72E83EC92E00E94A7170F9045
:104300000F900F900F900F900F900AE0302E0E94A8
:10431000BA0D288739874A875B876C877D878E87A8
:10432000CE0108960E94550B00910D0110910E01CF
:1043300020910F0130911001AB01BC01400F511FC2
:10434000621F731FCE0101960E94B40B87E0FE012D
:104350003196ADE9B6E001900D928A95E1F76DE1F5
:104360008EE00E94820A2091A206822F632D0E9475
:10437000FA2C682F660F680F660F620F87E00E94A5
:10438000820A2091A106822F632D0E94FA2C682FA9
:10439000660F680F660F620F88E00E94820A209104
:1043A000A006822F632D0E94FA2C682F660F680FDB
:1043B000660F620F6F7B89E00E94820A60E88AE0E4
:1043C0000E94820A8EE00E94050D682F60648EE0D4
:1043D0000E94820A0E94BA0D29833A834B835C8330
:1043E0006D837E838F83CE0101960E94550B60936F
:1043F000AF027093B0028093B1029093B2028091A9
:10440000B8069091B906811531E0930709F09AC377
:1044100080E00E94370D6093AC067093AD068093E8
:10442000AE069093AF0680E10E94370D6093B00610
:104430007093B1068093B2069093B3068091A70261
:104440009091A802B0E0A0E0BA2FA92F982F88275A
:104450004091B0065091B1066091B2067091B306DA
:104460005A016B01A81AB90ACA0ADB0AABA2BCA29C
:10447000CDA2DEA2A0929902B0929A02C0929B02B3
:10448000D0929C026091A9027091AA0290E080E013
:10449000A60195010E94B32DF22E032F142FB52FE4
:1044A000F62FE72FD82EE92EA0E00E94412E84F4AB
:1044B0002150310940485F4F6F4F7F4F8F4F9F4FC3
:1044C000F22E032F142FB52FF62FE72FD82EE92E1B
:1044D0002F2D302F412F5B2F6F2F7E2F8D2D9E2D57
:1044E00007E10E94062E2B8B3C8B4D8B5E8B6F8BD6
:1044F000788F898F9A8F0B891C892D893E8900536B
:10450000184F2F4F3F4F0FA318A729A73AA72B8962
:104510003C894D895E89CA01B9010E94EA2C2B01B0
:104520003C012FA138A549A55AA5203D374041059A
:1045300051050CF04BC36BA17CA18DA19EA19B01E9
:10454000AC010E94B32DB3E0AB2EB12CC12CD12C09
:10455000E12CF12C00E010E00E945B2D01E20E94B2
:10456000082E20938D0230938E0240938F02509339
:1045700090026093910270939202809393029093C1
:104580009402A3E0B0E0A30192010E94F12B8B0101
:104590009C013595279517950795009385021093F3
:1045A000860220938702309388025B016C01DD0C48
:1045B000AA08BA2C6501AB8EBC8ECD8EDE8EA09281
:1045C0008902BB8CB0928A02B0928B02B0928C02AC
:1045D000A5E0B0E0A30192010E94F12B8B019C01A8
:1045E000E3E03595279517950795EA95D1F7009360
:1045F0007D0210937E0220937F02309380027B0124
:104600008C01110FEE08FE2C8701EF8EF8A209A392
:104610001AA3E0928102FF8CF0928202F092830250
:10462000F09284022FA138A549A55AA524323A4F09
:104630004F4F5F4F0CF41EC36091A5027091A6020C
:1046400090E080E02BA13CA14DA15EA10E94B32D82
:10465000F22E032F142FB52FF62FE72FD82EE92E89
:10466000A0E00E94412E5CF4AFE70E942C2EF22EB7
:10467000032F142FB52FF62FE72FD82EE92E2F2D2D
:10468000302F412F5B2F6F2F7E2F8D2D9E2D07E01A
:104690000E94062E39014A01B62FA72FF82FE92FC5
:1046A000A090A102B090A202950140E050E060E02D
:1046B00070E080E090E000E10E94ED2D59016A0178
:1046C0007B018C019301A4016B2F7A2F8F2F9E2FDA
:1046D0000E94232E2B8F3F8F4BA75CA76DA77EA731
:1046E0008FA798AB6091A3027091A40290E080E044
:1046F0002BA13CA14DA15EA10E94B32DF22E032F50
:10470000142FB52FF62FE72FD82EE92EA0E00E9408
:10471000412E84F421503F4F4F4F5F4F6F4F7F4FDB
:104720008F4F9F4FF22E032F142FB52FF62FE72F09
:10473000D82EE92E2F2D302F412F5B2F6F2F7E2F5C
:104740008D2D9E2D08E00E94062E39014A01B62FBC
:10475000A72FF82FE92FA0909F02B090A002D12C94
:10476000C12C9501A60160E070E080E090E00FE0D0
:104770000E94ED2D59016A017B018C019301A40176
:104780006B2F7A2F8F2F9E2F0E94232EC0908D0289
:10479000D0908E02E0908F02F09090024FA058A42B
:1047A00069A47AA44C185D086E087F0840929502AF
:1047B000509296026092970270929802A0907D02A9
:1047C000B0907E02C0907F02D0908002E090810283
:1047D000F090820200918302109184020E94382E90
:1047E000A090AC06B090AD06C090AE06D090AF06DB
:1047F00076016701E12CF12C8701AB8ABC8ACD8A56
:10480000DE8AEF8AF88E098F1A8FE12CF12C00E0F6
:1048100010E00E945B2DF22E032F142FB52FF62FE0
:10482000E72FD82EE92EA0E00E94412E84F42150DB
:104830003109404E5F4F6F4F7F4F8F4F9F4FF22E8A
:10484000032F142FB52FF62FE72FD82EE92E2F2D5B
:10485000302F412F5B2F6F2F7E2F8D2D9E2D05E149
:104860000E94062E222E3B8B4A01B62FA72FF82F2F
:10487000E92F2B8D3F8D4BA55CA56DA57EA58FA542
:1048800098A9A0908502B0908602C0908702D0902F
:104890008802E0908902F0908A0200918B021091C8
:1048A0008C020E94382E59016A017B018C01222D55
:1048B0003B89A4016B2F7A2F8F2F9E2F0E94382EB9
:1048C000F22E032F142FB52FF62FE72FD82EE92E17
:1048D000A0E00E94412E84F4215030484F4F5F4F9A
:1048E0006F4F7F4F8F4F9F4FF22E032F142FB52FF7
:1048F000F62FE72FD82EE92E2F2D302F412F5B2FAB
:104900006F2F7E2F8D2D9E2D0FE00E94062EB90158
:10491000CA012093B4067093B5064093B6069093EF
:10492000B7060E94E22A20E030E040E251E40E9413
:10493000422C6B017C01C092A406D092A506E092A5
:10494000A606F092A706C301B2010E94E22A20E067
:1049500030E048EC52E40E94422C4B015C01809212
:10496000A8069092A906A092AA06B092AB0620E0F3
:1049700030E040E251E4C701B6010E941D2B0E94C5
:10498000BB2C6093B3027093B4028093B5029093F2
:10499000B60220E030E048EC52E4C501B4010E94C8
:1049A0001D2B0E94B42C7093BC026093BB028EE856
:1049B0000E944C0F682F6F7B8EE80E94B10E60E161
:1049C00080E80E94B10E80E80E944C0F86FFC6C1AD
:1049D00085E80E942E0F9093B8028093B7028EE86C
:1049E0000E944C0F682F6F778EE80E94B10E68E02E
:1049F00080E80E94B10E80E80E944C0F85FFB5C18F
:104A000087E80E942E0F9093BA028093B90292E435
:104A1000D92ED0927C0080917A00806480937A00B5
:104A200080917A0086FDFCCF90917800809179008A
:104A30008927982789279093BE028093BD029F9370
:104A40008F938091BC028F938091BB028F93809152
:104A5000B6028F938091B5028F938091B4028F93A9
:104A60008091B3028F938091BA028F938091B902A3
:104A70008F938091B8028F938091B7028F9380912A
:104A8000B2028F938091B1028F938091B0028F9385
:104A90008091AF028F938FE0E82E82E0F82EFF9294
:104AA000EF9223EC32E03F932F930E94A72E809148
:104AB000AD029091AE020FB6F894DEBF0FBECDBF2F
:104AC000009729F069E0855D9D4F0E943F1463ECDB
:104AD00072E08DE194E00E94021881E294E00E946D
:104AE000500983EC92E00E94A7178DE996E00E949E
:104AF000550B6B017C010E94BA0D29833A834B83CD
:104B00005C836D837E838F83CE0101960E94550B5B
:104B1000C61AD70AE80AF90AB6E0CB16D104E104AE
:104B2000F10408F429C10E94DE17E0E0F0E0EF2B69
:104B300009F4EDCB0E949002882309F4E8CB0E948F
:104B40000000E5CB811542E0940769F482E00E9401
:104B5000370D6093AC067093AD068093AE069093CC
:104B6000AF0682E161CC811554E0950769F484E0D9
:104B70000E94370D6093AC067093AD068093AE062D
:104B80009093AF0684E150CC8115A8E09A0769F4B0
:104B900086E00E94370D6093AC067093AD0680935B
:104BA000AE069093AF0686E13FCC8115904109F0A7
:104BB00045CC88E00E94370D6093AC067093AD063B
:104BC0008093AE069093AF0688E12ECC6BA17CA1BA
:104BD0008DA19EA19B01AC010E94B32DE7E0AE2EFA
:104BE000B12CC12CD12CE12CF12C00E010E00E9462
:104BF0005B2D05E20E94082E20938D0230938E02D9
:104C000040938F02509390026093910270939202AE
:104C10008093930290939402D301C201F4E0B5957E
:104C2000A79597958795FA95D1F7809385029093EC
:104C30008602A0938702B0938802770C4408542C14
:104C400032014092890240928A0240928B02409245
:104C50008C0210927D0210927E0210927F021092BE
:104C600080021092810210928202109283021092AE
:104C70008402E2CCF0917D02E0917E0290907F026E
:104C8000809080026B897C898D899E896455724FE2
:104C90008F4F9F4F9B01AC010E94EA2C2B013C01DE
:104CA000A7E0B0E0AC019B010E94F12B6B017C01FD
:104CB000FF0CCC08DC2C76019B01AC016C2D7C2D0B
:104CC0008C2D9C2DA0908502B0908602C09087020A
:104CD000D0908802EB8CFE2C0E2D1E2D0E94232ED0
:104CE0002093850230938602409387025093880276
:104CF0006093890270938A0280938B0290938C0256
:104D000032E0440C551C661C771C3A95D1F77301B0
:104D10006201FF0CCC08DC2C76019201A3016C2D02
:104D20007C2D8C2D9C2DAF2EBE2EC92CD82CEF8C1B
:104D3000FE2C0E2D1E2D0E94232E20937D023093DB
:104D40007E0240937F0250938002609381027093B1
:104D5000820280938302909384026ECC61E070E0C3
:104D600080E090E00E94D1032ECE61E070E080E010
:104D700090E00E94D1033FCE84E793E00E940E03AF
:104D800021E030E050E040E065E070E082E093E058
:104D90000E94070B21E030E050E040E064E070E06A
:104DA00082E093E00E94070BC0CE0F931F93CF9336
:104DB000DF938230910510F482E090E0E091C80624
:104DC000F091C90630E020E0B0E0A0E0309799F41F
:104DD0002115310509F44AC0281B390B243031054F
:104DE000D8F58A819B816115710589F1FB01938357
:104DF0008283FE0111C040815181028113814817D5
:104E00005907E0F04817590799F4109761F0129686
:104E10000C93129713961C933296CF01DF91CF918A
:104E20001F910F9108950093C8061093C906F4CFFF
:104E30002115310551F04217530738F0A901DB0164
:104E40009A01BD01DF01F801C1CFEF01F9CF9093C5
:104E5000C9068093C806CDCFFE01E20FF31F8193F0
:104E600091932250310939832883D7CF2091C606E8
:104E70003091C706232B41F4209113013091140186
:104E80003093C7062093C60620911101309112017C
:104E90002115310541F42DB73EB7409115015091D0
:104EA0001601241B350BE091C606F091C706E217E8
:104EB000F307A0F42E1B3F0B2817390778F0AC013D
:104EC0004E5F5F4F2417350748F04E0F5F1F50931A
:104ED000C7064093C606819391939FCFF0E0E0E030
:104EE0009CCFCF93DF930097E9F0FC0132971382B8
:104EF0001282A091C806B091C906ED0130E020E011
:104F00001097A1F420813181820F931F2091C60652
:104F10003091C7062817390709F061C0F093C7061A
:104F2000E093C606DF91CF910895EA01CE17DF071F
:104F3000E8F54A815B819E0141155105B1F7E90110
:104F4000FB83EA8349915991C40FD51FEC17FD07E4
:104F500061F4808191810296840F951FE901998304
:104F60008883828193819B838A83F0E0E0E01296BC
:104F70008D919C9113970097B9F52D913C911197C4
:104F8000CD010296820F931F2091C6063091C7066D
:104F90002817390739F6309751F51092C906109243
:104FA000C806B093C706A093C606BCCFD383C283FE
:104FB00040815181840F951FC817D90761F44E5F56
:104FC0005F4F88819981480F591F518340838A819F
:104FD0009B81938382832115310509F0B0CFF09333
:104FE000C906E093C8069ECFFD01DC01C0CF138245
:104FF0001282D7CF1F93FC0199278827BC01E89420
:1050000011911032E9F3193010F01E30C8F31B3241
:1050100051F01D3249F4689406C00E944D28610F7A
:10502000711D811D911D119110531A30B0F33EF482
:1050300090958095709561957F4F8F4F9F4F1F91F1
:10504000089544EC56E00E9426280895FA01A191A3
:10505000B081009719F41097E1F0CD01DC01CD018A
:105060000D90002011F4C00113C0FB0121912223F7
:1050700019F02015D9F7F3CFFB012191201519F470
:105080001E92119606C02223C1F70D900020A1F7B1
:10509000D001FA01A193B0830895592F482F372FDB
:1050A000262F660F771F881F991F660F771F881F8F
:1050B000991F620F731F841F951F660F771F881F2C
:1050C000991F0895ABE0B0E0E8E6F8E20C94FC2B01
:1050D0007C013B018A01FC0117821682838181FFDA
:1050E000C8C1CE0101965C01F7019381F30193FDE4
:1050F000859193FF81913F01882309F453C1853243
:1051000039F493FD859193FF81913F01853229F414
:10511000B70190E00E94522AE7CF912C212C312C2C
:10512000FFE1F31538F08B3211F190F4803209F180
:10513000833229F137FC3CC020ED280F2A3050F58E
:1051400036FE20C08AE0989E200D1124922E06C0C3
:105150008D3291F0803371F7689430F8F30193FD4C
:10516000859193FF81913F018111DACF21C068942D
:1051700031F8689432F8F2CF689433F8EFCF68943E
:1051800034F8ECCFEAE02E9E200D1124222E6894F4
:1051900035F8E4CF8E3229F436FC04C1689436F831
:1051A000DDCF8C3619F4689437F8D8CF8836B1F251
:1051B000982F9F7D95549330E0F08336A1F183378B
:1051C000C1F1833509F063C02801F2E04F0E511C94
:1051D000F801C080D180692D70E036FC02C06FEF0D
:1051E0007FEFC6010E943C2A4C01689437F8820187
:1051F0000AC00C5F1F4FFFE3F98388248394912C2E
:105200006501E89437F833FE2DC0522C81149104C7
:1052100071F5552009F468CFB70180E290E00E9453
:10522000522A5A94F6CFF801808189830E5F1F4F6E
:10523000E4CF2801F2E04F0E511CF801C080D1806C
:10524000692D70E036FC02C06FEF7FEFC6010E944F
:10525000472A4C018201D5CFB70180E290E00E943D
:10526000522A2A942814190409F0B0F7CECFF60177
:1052700037FC859137FE81916F01B70190E00E9464
:10528000522A51105A94F1E08F1A9108BFCF8436F8
:1052900019F0893609F077C0F80137FE6BC06081DC
:1052A0007181828193810C5F1F4FF32DFF763F2E1A
:1052B00097FF09C090958095709561957F4F8F4FAE
:1052C0009F4F689437F82AE030E0A5010E94822AB7
:1052D000C82ECA188C2C432C36FE0CC0E89440F81B
:1052E000C91440F434FE05C032FC03C0F32DFE7E29
:1052F0004F2E892C44FE95C0FE01EC0DF11D8081DE
:10530000803309F087C0242D297E422E842D887099
:10531000582E43FC95C040FE8FC09C2C821418F47C
:105320002C0C922C981844FE91C0B70180E390E0B9
:105330000E94522A42FE09C088E790E041FE02C066
:1053400088E590E0B7010E94522AC91408F48AC087
:10535000CA94D12C9FEFC91AD90ACA0CDB1CF601DA
:1053600082916F01B70190E00E94522AAC14BD04F3
:10537000B1F74FCF60817181072E000C880B990B1C
:105380000E5F1F4F92CFD32CE894D4F82AE030E080
:10539000853739F1232D297FD22E8F3601F148F43C
:1053A0008835A9F0F701868197812B96E2E10C946C
:1053B000182C803749F08837A9F7D4FE02C06894CA
:1053C000D2F820E130E00DC06894D4F8F6CF34FE76
:1053D00003C0822F8660D82E20E132E002C028E090
:1053E00030E0F801D7FE0FC0608171818281938126
:1053F0000C5F1F4FA5010E94822AC82ECA183D2C9F
:10540000E89437F867CF6081718190E080E00E5FAB
:105410001F4FF0CF42FC02C0839478CF83948394D3
:1054200075CF842D867809F471CFF6CFB70180E26D
:1054300090E00E94522A83948214C0F3512C73CFBF
:10544000522C5818821408F46ECFF8CF842D867829
:1054500009F47BCF8BE241FE80E247FC8DE2B7018D
:1054600090E071CFB70180E390E00E94522A9A94B5
:105470006CCF8FEF9FEF99CFFC010590615070408A
:105480000110D8F7809590958E0F9F1F0895FC010D
:105490006150704001900110D8F7809590958E0F63
:1054A0009F1F08950F931F93CF93DF93182F092FFA
:1054B000EB018B8181FD09C01FEF0FEF812F902F32
:1054C000DF91CF911F910F91089582FF14C02E811B
:1054D0003F818C819D81281739073CF4E881F9814F
:1054E000CF0101969983888310838E819F810196D5
:1054F0009F838E83E3CFE885F985812F0995892BDA
:10550000A1F3DACFFA01AA27283051F1203181F135
:10551000E8946F936E7F6E5F7F4F8F4F9F4FAF4FBB
:10552000B1E03ED0B4E03CD0670F781F891F9A1FCE
:10553000A11D680F791F8A1F911DA11D6A0F711D82
:10554000811D911DA11D20D009F468943F912AE08E
:10555000269F11243019305D3193DEF6CF01089576
:10556000462F4770405D4193B3E00FD0C9F7F6CFA7
:10557000462F4F70405D4A3318F0495D31FD40526F
:10558000419302D0A9F7EACFB4E0A6959795879505
:1055900077956795BA95C9F70097610571050895E4
:1055A0009B01AC010A2E0694579547953795279590
:1055B000BA95C9F7620F731F841F951FA01D089528
:1055C000E89409C097FB3EF490958095709561959D
:1055D0007F4F8F4F9F4F9923A9F0F92F96E9BB2753
:1055E0009395F695879577956795B795F111F8CFCF
:1055F000FAF4BB0F11F460FF1BC06F5F7F4F8F4F3A
:105600009F4F16C0882311F096E911C0772321F02F
:105610009EE8872F762F05C0662371F096E8862FC7
:1056200070E060E02AF09A95660F771F881FDAF71E
:10563000880F9695879597F908950E94302B0C94C2
:10564000A12B0E94932B38F00E949A2B20F09523D7
:1056500011F00C948A2B0C94902B11240C94D52BC4
:105660000E94B22B70F3959FC1F3950F50E0551F28
:10567000629FF001729FBB27F00DB11D639FAA27A7
:10568000F00DB11DAA1F649F6627B00DA11D661FF6
:10569000829F2227B00DA11D621F739FB00DA11D17
:1056A000621F839FA00D611D221F749F3327A00DD1
:1056B000611D231F849F600D211D822F762F6A2F6D
:1056C00011249F5750409AF0F1F088234AF0EE0FD2
:1056D000FF1FBB1F661F771F881F91505040A9F7FF
:1056E0009E3F510580F00C948A2B0C94D52B5F3F84
:1056F000E4F3983ED4F3869577956795B795F7953B
:10570000E7959F5FC1F7FE2B880F911D96958795B2
:1057100097F9089597F99F6780E870E060E0089531
:105720009FEF80EC089500240A94161617061806B9
:105730000906089500240A94121613061406050695
:105740000895092E0394000C11F4882352F0BB0F26
:1057500040F4BF2B11F460FF04C06F5F7F4F8F4F89
:105760009F4F089557FD9058440F551F59F05F3FC4
:1057700071F04795880F97FB991F61F09F3F79F073
:1057800087950895121613061406551FF2CF4695F5
:10579000F1DF08C0161617061806991FF1CF869577
:1057A0007105610508940895E894BB27662777275B
:1057B000CB0197F90895F999FECF92BD81BDF89A72
:1057C000992780B50895262FF999FECF1FBA92BD6B
:1057D00081BD20BD0FB6F894FA9AF99A0FBE0196D2
:1057E00008950E94332CA59F900DB49F900DA49F07
:1057F000800D911D112408952F923F924F925F9238
:105800006F927F928F929F92AF92BF92CF92DF92D0
:10581000EF92FF920F931F93CF93DF93CDB7DEB735
:10582000CA1BDB0B0FB6F894DEBF0FBECDBF0994C9
:105830002A88398848885F846E847D848C849B8420
:10584000AA84B984C884DF80EE80FD800C811B812E
:10585000AA81B981CE0FD11D0FB6F894DEBF0FBE5D
:10586000CDBFED010895A29FB001B39FC001A39FDA
:10587000700D811D1124911DB29F700D811D112489
:10588000911D08950E94562C0C94A12B0E949A2BD6
:1058900058F00E94932B40F029F45F3F29F00C94BC
:1058A0008A2B51110C94D52B0C94902B0E94B22B67
:1058B00068F39923B1F3552391F3951B550BBB273F
:1058C000AA2762177307840738F09F5F5F4F220F84
:1058D000331F441FAA1FA9F335D00E2E3AF0E0E87B
:1058E00032D091505040E695001CCAF72BD0FE2FC5
:1058F00029D0660F771F881FBB1F26173707480759
:10590000AB07B0E809F0BB0B802DBF01FF27935810
:105910005F4F3AF09E3F510578F00C948A2B0C941F
:10592000D52B5F3FE4F3983ED4F386957795679542
:10593000B795F7959F5FC9F7880F911D9695879545
:1059400097F90895E1E0660F771F881FBB1F621764
:1059500073078407BA0720F0621B730B840BBA0B22
:10596000EE1F88F7E09508950E94BB2C6894B11152
:105970000C94D52B08950E94BA2B88F09F5798F06D
:10598000B92F9927B751B0F0E1F0660F771F881F44
:10599000991F1AF0BA95C9F714C0B13091F00E945E
:1059A000D42BB1E008950C94D42B672F782F88273F
:1059B000B85F39F0B93FCCF3869577956795B39585
:1059C000D9F73EF490958095709561957F4F8F4FF4
:1059D0009F4F0895DB018F939F930E94F12BBF91FE
:1059E000AF91A29F800D911DA39F900DB29F900D2E
:1059F00011240895991B79E004C0991F961708F0A7
:105A0000961B881F7A95C9F780950895AA1BBB1B22
:105A100051E107C0AA1FBB1FA617B70710F0A61BAE
:105A2000B70B881F991F5A95A9F780959095BC01CF
:105A3000CD010895A1E21A2EAA1BBB1BFD010DC0CA
:105A4000AA1FBB1FEE1FFF1FA217B307E407F5072E
:105A500020F0A21BB30BE40BF50B661F771F881F0A
:105A6000991F1A9469F760957095809590959B01A0
:105A7000AC01BD01CF010895052E97FB1EF40094E3
:105A80000E94532D57FD07D00E941A2D07FC03D00A
:105A90004EF40C94532D50954095309521953F4FE1
:105AA0004F4F5F4F089590958095709561957F4F0A
:105AB0008F4F9F4F0895DF93CF931F930F939A9D1E
:105AC000F02D219FF00D8B9DF00D8A9DE02DF10DA5
:105AD000039FF00D029FE00DF11D4E9DE00DF11DA5
