:020000040000FA
:100000000C94C7000C94EF000C94EF000C94EF00DC
:100010000C94EF000C94EF000C94BF1A0C94EF00BA
:100020000C94EF000C94EF000C94EF000C94EF0094
:100030000C94EF000C94EF000C94EF000C94EF0084
:100040000C9456190C94EF000C9424190C94FE187F
:100050000C94EF000C94EF000C94EF000C94EF0064
:100060000C94A0190C94EF001F1C1F1E1F1E1F1FB5
:100070001E1F1E1F000000090003020000040508E7
:100080000000000000000000000000534E207375C7
:10009000636365737366756C6C7920736574207423
:1000A0006F3A2000496E76616C696420534E004DB2
:1000B000697373696E672073657269616C206E7510
:1000C0006D6265722E20456E7465722061207661C6
:1000D0006C696420534E205B312D36353533345DE9
:1000E0003A002453746172747570206661696C659E
:1000F000642A36360074696D652C6D696C6C6973A1
:100100002C616D6269656E745F6C696768742C62DE
:1001100061636B736361747465722C707265737361
:100120007572652C77617465725F74656D702C6291
:10013000617474657279004669726D7761726520C9
:10014000757064617465643A200000000000250049
:1001500028002B0000000000240027002A000404CF
:10016000040404040404020202020202030303035F
:10017000030302020301020408102040800102046C
:10018000081020010204081020408040E31A1124C6
:100190001FBECFEFD8E0DEBFCDBF12E0A0E0B1E0E0
:1001A000E2E1F3E602C005900D92A232B107D9F761
:1001B00026E0A2E2B2E001C01D92AB3DB207E1F73A
:1001C00010E0C7ECD0E004C02197FE010E940A3184
:1001D000C63CD107C9F70E947E1B0C9487310C9452
:1001E000000090917E0380917D032FEF3FEF9817E1
:1001F00048F4E92FF0E0E35AFC4F208130E09F5FA4
:1002000090937E03C901089590917E0380917D03B0
:100210002FEF3FEF981748F4E92FF0E0E35AFC4F37
:10022000208130E09F5F90937E03C90108959091F3
:100230005C039111FCCF91E090935C0340935B03CE
:100240002FEF20935A0310925903260F209358033F
:100250009093570390915703880F892B80935703EE
:10026000809156038130F9F4109256038091570320
:100270008093BB008091BC0083FDF8CF85EC809318
:10028000BC0080915C038130E1F3809159038617B3
:1002900010F460915903A6E3B3E0EDE5F3E080E0EC
:1002A000861303C0089585EEEACF9D9191938F5FE9
:1002B000F7CF982F2091350381E0213208F043C019
:1002C00080915C038111FCCF8091340332E0309344
:1002D0005C0390935B039FEF90935A031092590332
:1002E00020935803A4E1B3E0E6E3F3E090E02913A0
:1002F00031C01092570390915703880F892B809338
:10030000570380915603813049F51092560380912E
:1003100057038093BB008091BC0083FDF8CF85EC30
:100320008093BC0080915C038230E1F380915A039A
:100330008F3FB1F080915A038032A1F080915A032F
:10034000803391F084E010921303109235031092E1
:10035000120308953D9131939F5FC9CF85EEE0CFA1
:1003600080E0F1CF82E0EFCF83E0EDCF91E090939A
:1003700012038093340310921303109235030895EF
:1003800090E0FC01EB58FE4F2491825A9E4FFC01F5
:100390008491882399F090E0880F991FFC01EC5A12
:1003A000FE4FA591B491FC01E65BFE4F85919491BF
:1003B0008FB7F894EC91E22BEC938FBF0895809166
:1003C0007D0390917E03891B990B089508950895EC
:1003D000FA011082E0917302F09174020994EF9295
:1003E000FF920F931F93CF93DF938C017B01D0E09B
:1003F000C0E0F701EC0FFD1F6491662361F0D801A6
:10040000ED91FC910190F081E02DC8010995892BB7
:1004100011F02196EECFCE01DF91CF911F910F9178
:10042000FF90EF900895AF92BF92CF92DF92EF923C
:10043000FF920F931F93CF93DF936C017B018B018E
:10044000040F151FEB015E01AE18BF08C017D107DE
:1004500059F06991D601ED91FC910190F081E02D68
:10046000C6010995892B79F7C501DF91CF911F91BD
:100470000F91FF90EF90DF90CF90BF90AF900895D5
:10048000FC01538D448D252F30E0842F90E0821B9A
:10049000930B541710F0CF96089501970895FC011F
:1004A000918D828D981761F0A28DAE0FBF2FB11D77
:1004B0005D968C91928D9F5F9F73928F90E00895CF
:1004C0008FEF9FEF0895FC01918D828D981731F089
:1004D000828DE80FF11D858D90E008958FEF9FEFDD
:1004E0000895FC01918D228D892F90E0805C9F4FB3
:1004F000821B91098F73992708958FE793E00E94DB
:10050000710221E0892B09F420E0822F089580E018
:1005100090E0892B29F00E947D0281110C9400004B
:100520000895FC01A48DA80FB92FB11DA35ABF4F88
:100530002C91848D90E001968F739927848FA689E2
:10054000B7892C93A089B1898C9180648C93938D09
:10055000848D981306C00288F389E02D80818F7DF9
:1005600080830895EF92FF920F931F93CF93DF93B1
:10057000EC0181E0888F9B8D8C8D981316C0E889E3
:10058000F989808185FF11C0EE89FF896083E88940
:10059000F98980818064808381E090E0DF91CF9150
:1005A0001F910F91FF90EF900895F62E0B8D10E0A4
:1005B0000F5F1F4F0F731127E02E8C8D8E110CC013
:1005C0000FB607FCFACFE889F989808185FFF5CF5E
:1005D000CE010E949102F1CFEB8DEC0FFD2FF11DAA
:1005E000E35AFF4FF0820B8FEA89FB89808180629A
:1005F000D2CF682F8FE793E00C94B202CF93DF93B2
:10060000EC01888D8823B9F0AA89BB89E889F9892A
:100610008C9185FD03C0808186FD0DC00FB607FC5F
:10062000F7CF8C9185FFF2CF808185FFEDCFCE0192
:100630000E949102E9CFDF91CF91089590E0FC01F3
:10064000EC58FF4F2491FC01EB58FE4F3491FC0114
:10065000E25AFE4FE491EE23C9F0222339F0243010
:1006600001F1A8F4223069F1233079F1F0E0EE0FC6
:10067000FF1FE65BFE4FA591B4918FB7F894EC9104
:10068000611126C030953E233C938FBF08952830DA
:1006900071F0293091F0253049F7809180008F7DED
:1006A00003C0809180008F7780938000DFCF80919E
:1006B000B0008F778093B000D9CF8091B0008F7D4C
:1006C000F9CF84B58F7784BDD1CF84B58F7DFBCF33
:1006D0003E2BDACF10927E0310927D03109213030B
:1006E0001092350310925C0381E080935B031092BB
:1006F000560361E082E10E941E0361E083E10E94F3
:100700001E03E9EBF0E080818E7F808380818D7F06
:10071000808380E28093B80085E48093BC0086EEFD
:1007200091E09093CA028093C90287EE91E0909382
:10073000C8028093C70208953FB7F89480916B0276
:1007400090916C02A0916D02B0916E0226B5A89BAB
:1007500005C02F3F19F00196A11DB11D3FBFBA2F53
:10076000A92F982F8827BC01CD01620F711D811D13
:10077000911D43E0660F771F881F991F4A95D1F797
:1007800008958F929F92AF92BF92CF92DF92EF9295
:10079000FF926B017C010E949C034B015C01C11420
:1007A000D104E104F104B9F00E949C0368197909AD
:1007B0008A099B09683E73408105910580F321E019
:1007C000C21AD108E108F10888EE880E83E0981E6D
:1007D000A11CB11CE4CFFF90EF90DF90CF90BF90B1
:1007E000AF909F908F9008952FB7F8946091670213
:1007F000709168028091690290916A022FBF0895FA
:100800000F931F930E94F4036093870370938803F0
:100810008093890390938A038FE793E00E94630299
:1008200097FF1DC00E94F403009187031091880375
:100830002091890330918A03601B710B820B930B0B
:1008400000918303109184032091850330918603E6
:100850006017710782079307F8F28FEF9FEF1F91E0
:100860000F910895CF93DF93EC019A818B819CBD0A
:100870008DBD60E08A850E941E0381E08C87DF9138
:10088000CF9108958EBD00000DB407FEFDCF8EB54B
:1008900008958FEF0C9442040F931F93CF93DF932F
:1008A000EC010E94F4038B010E9449048F3F69F020
:1008B0000E94F403601B710BC617D707A8F780E0EE
:1008C000DF91CF911F910F91089581E0F9CFCF93E0
:1008D000DF93FC012485222349F0EC0161E082854D
:1008E0000E941E038FEF0E9442041C86DF91CF916D
:1008F00008950F931F93CF93DF938C01862FEA0106
:100900000E944204FE0181918EBDDE5FEC17FD075F
:1009100041F081910DB407FEFDCF8EBD00000000B7
:10092000F5CF0DB407FEFDCF8FEF0E9442048FEF8D
:100930000E9442040E944904F80185878F71853026
:1009400059F080E28387C8010E94670480E0DF914C
:10095000CF911F910F91089581E0F9CFDF92EF922F
:10096000FF920F931F93CF93DF93EC01162F022F6B
:10097000F32EE42ED52E888581112DC08C85811112
:1009800003C0CE010E943204112321F08CE291E0D9
:100990000E944C04812F80640E9442048D2D0E948D
:1009A00042048E2D0E9442048F2D0E944204802F0B
:1009B0000E94420487E8111101C085E90E944204A7
:1009C0000E9449041BE00E9449048D8787FF09C0EB
:1009D0001150C9F706C0CE010E94F9048111CECF93
:1009E0008FEFDF91CF911F910F91FF90EF90DF90EC
:1009F00008951F93CF93DF93EC018885188682308A
:100A0000A9F488E592E00E944C04182F882359F03D
:100A10008DEF0E944204CE010E946704812FDF9176
:100A2000CF911F9108958EE18B87F5CF813099F496
:100A300020E030E0A9016CE0CE010E94AE048823E2
:100A400039F089E08B87CE010E94670410E0E6CF81
:100A5000CE010E94670411E0E1CFCF92DF92EF92C6
:100A6000FF920F931F93CF93DF93EC016A017B01F9
:100A700089018885813049F48C819D81AE81BF8157
:100A80008C159D05AE05BF05C1F08E85A7019601A9
:100A9000833039F089E0220F331F441F551F8A9598
:100AA000D1F762E1CE010E94AE04811117C0CC8261
:100AB000DD82EE82FF8281E088870E94F4037B0161
:100AC0000E9449048D878F3FC1F40E94F4036E1980
:100AD0007F096D327140A0F38DE101C08CE08B87FE
:100AE000CE010E94670480E0DF91CF911F910F91AA
:100AF000FF90EF90DF90CF9008958E3F11F088E146
:100B0000EECF8FEF8EBDF801D801A150BE4F9FEF01
:100B1000AE17BF0749F00DB407FEFDCF8EB59EBDE1
:100B2000819300000000F4CF0DB407FEFDCF8EB519
:100B30008C931D860E9449040E9449048C819D81EA
:100B4000AE81BF810196A11DB11D8C839D83AE83B3
:100B5000BF838985811102C081E0C6CFCE01DF91BC
:100B6000CF911F910F91FF90EF90DF90CF900C9459
:100B7000F904CF92DF92EF92FF920F931F93CF93DE
:100B8000DF93EC016A017B0189018985882371F17A
:100B90008E85833039F099E0CC0CDD1CEE1CFF1CF7
:100BA0009A95D1F7A701960168E1CE010E94AE04A3
:100BB000882339F08DE08B87CE010E946704F12CE9
:100BC0000BC0A8016EEFCE010E947904F82E882395
:100BD00099F3CE010E9467048F2DDF91CF911F9171
:100BE0000F91FF90EF90DF90CF900895888582302D
:100BF00049F48C819D81AE81BF81C816D906EA0671
:100C0000FB06C1F08E85A7019601833039F089E09B
:100C1000220F331F441F551F8A95D1F769E1CE017A
:100C20000E94AE0481110EC0CC82DD82EE82FF8272
:100C300082E0888788E592E00E944C04811108C018
:100C400084E201C08EE08B87CE010E946704B4CF9E
:100C5000A8016CEFCE010E947904F82E8823A1F33D
:100C60008C819D81AE81BF810196A11DB11D8C83B8
:100C70009D83AE83BF838985882309F4ADCFCE01E0
:100C8000DF91CF911F910F91FF90EF90DF90CF9068
:100C90000C94F904EF92FF921F93CF93DF93FC0122
:100CA000208111E020FF12C0EC017C01FBE0EF0E7F
:100CB000F11C4F81588569857A85970189819A81D0
:100CC0000E94B905182F811108C010E0812FDF9113
:100CD000CF911F91FF90EF900895888181FD04C00E
:100CE00088818E7F8883F2CF4F81588569857A8588
:100CF0008B819C81AD81BE81480F591F6A1F7B1F6C
:100D0000970189819A810E94B9058111E9CFDDCFD0
:100D1000CF92DF92EF92FF921F93CF93DF93DC018C
:100D20001196ED91FC91EF2B51F490E080E0DF9172
:100D3000CF911F91FF90EF90DF90CF900895122FE9
:100D40006A017B01EC018F819885A985BA858C1594
:100D50009D05AE05BF0561F0CE010E944A068823BD
:100D600021F312FF0CC01882CF82D886E986FA865A
:100D700013702881122B1883CE010B96D8CF9E01B9
:100D8000255F3F4FB701A60189819A810E942D05F9
:100D90008111E9CFCACF8F929F92AF92BF92CF922B
:100DA000DF92EF92FF920F931F934230510561053E
:100DB000710560F480E01F910F91FF90EF90DF903C
:100DC000CF90BF90AF909F908F900895FC01C08C02
:100DD000D18CE28CF38CC416D506E606F70650F3E8
:100DE000480159016A017B018581803241F584897E
:100DF0009589A689B78917E07695679557954795A0
:100E00001A95D1F7480F591F6A1F7B1F23E0CF01A6
:100E100080960E948806009769F2E894C7F8DD245E
:100E2000EE24FF24CC0CDD1CCC0CDD1C8C0D9D1D98
:100E3000FC0180829182A282B38281E0BCCF8031AA
:100E400009F0B8CF44895589668977894D0D511DC0
:100E5000611D711D23E0CF0180960E9488060097D6
:100E600009F4A8CFDD24EE24FF24CC0CDD1CC80E31
:100E7000D91EF60111830083E0CFCF92DF92EF926B
:100E8000FF920F931F93CF93DF934230510561057B
:100E9000710550F48FEFDF91CF911F910F91FF906B
:100EA000EF90DF90CF900895FC01C08CD18CE28C44
:100EB000F38CC416D506E606F70660F389016A01CD
:100EC0007B01EC0185818032B1F584899589A68901
:100ED000B789E7E07695679557954795EA95D1F7F5
:100EE000480F591F6A1F7B1F22E0CE0180960E9487
:100EF0008806009779F2E894C7F8DD24EE24FF24F1
:100F0000CC0CDD1CCC0CDD1C8C0D9D1DFC018081EE
:100F10009181A281B381488D598D6A8D7B8D48174F
:100F200059076A077B0738F1F80180839183A28310
:100F3000B38381E0B0CF803109F0ACCF44895589CB
:100F4000668977894D0D511D611D711D22E0CF010C
:100F500080960E948806009709F49CCFDD24EE2439
:100F6000FF24CC0CDD1CC80ED91EF60180819181B6
:100F7000B0E0A0E0D0CF80E08ECF4F925F926F9232
:100F80007F928F929F92AF92BF92CF92DF92EF9219
:100F9000FF920F931F93CF93DF93EC014A015B0104
:100FA0004C845D846E847F842881222309F45CC094
:100FB000488959896A897B89481559056A057B05DD
:100FC00081F081149104A104B10469F41C861D868A
:100FD0001E861F86888A998AAA8ABB8A8A818F7D03
:100FE0008A8381E046C023FF2CC0888D998DAA8D0D
:100FF000BB8D88159905AA05BB05B0F1EE81FF816F
:101000003481375F7501640181E0C81AD108E108B5
:10101000F108032E04C0F694E794D794C7940A9479
:10102000D2F78A8186FF36C08C8D9D8DAE8DBF8DA7
:101030008C0D9D1DAE1DBF1D8C879D87AE87BF8704
:10104000C9CF25FFDBCFEE81FF818681978125E027
:10105000880F991F2A95E1F7B0E0A0E0881599055F
:10106000AA05BB0508F0B6CF4C865D866E867F86E6
:1010700080E0DF91CF911F910F91FF90EF90DF9073
:10108000CF90BF90AF909F908F907F906F905F9028
:101090004F900895DB01CA010197A109B10904C06D
:1010A000B695A795979587953A95D2F7C816D9061C
:1010B000EA06FB0620F0452B462B472B49F526FF79
:1010C00022C0848D958DA68DB78D8C879D87AE8728
:1010D000BF878E01045F1F4FC114D104E104F104E6
:1010E00009F478CF4C855D856E857F8598018E816A
:1010F0009F810E943D0791E0C91AD108E108F108DB
:10110000181654F3B1CF8C8D9D8DAE8DBF8DDDCF74
:10111000C81AD90AEA0AFB0ADCCF3F924F925F92C3
:101120006F927F928F929F92AF92BF92CF92DF92F7
:10113000EF92FF920F931F93CF93DF9300D000D0D5
:10114000CDB7DEB75C01FC014484558466847784A6
:1011500086809780F401C084D184E284F384C4142F
:10116000D504E604F704C0F47301620110E0FFEF58
:10117000CF1ADF0AEF0AFF0AF401808D918DA28D4C
:10118000B38D8C159D05AE05BF0540F4111132C01D
:10119000C084D184E284F38411E0E9CF4C145D046F
:1011A0006E047F0439F19E012F5F3F4FB701A60106
:1011B000C4010E943D0787FD1DC08823C1F28981BB
:1011C0009A81AB81BC81892B8A2B8B2B81F61123D1
:1011D00029F0F401C086D186E286F3860FEF1FEF77
:1011E0002FEF3FE0B701A601C4010E94CB06382EC5
:1011F000811118C0312C832D0F900F900F900F90FC
:10120000DF91CF911F910F91FF90EF90DF90CF90E2
:10121000BF90AF909F908F907F906F905F904F9016
:101220003F9008954114510461047104B9F4F5012B
:10123000C486D586E686F78682814114510461040E
:101240007104B1F0FFEF4F1A5F0A6F0A7F0A4C1466
:101250005D046E047F0479F08F7B0BC097018601DB
:10126000B301A201C4010E94CB068111E0CFC2CF1D
:101270008064F5018283F501828180688283BBCF1F
:10128000EF92FF920F931F93CF93DF9300D000D084
:101290001F92CDB7DEB78C01FC01828187FF66C04B
:1012A00044895589668977898681978121E080966E
:1012B0000E948806009789F4F8018181816081830A
:1012C00080E00F900F900F900F900F90DF91CF91D3
:1012D0001F910F91FF90EF900895F801E480F58041
:1012E000FFE0EF22FF2425E0EE0CFF1C2A95E1F73A
:1012F000E80EF91EE114F104F9F2F7018081853E50
:10130000D9F2F801808183FF09C0808D918DA28D73
:10131000B38DF701848F958FA68FB78FF801848DD9
:10132000958DA68DB78DF701938F828FB58BA48B8A
:10133000E0910A03F0910B033097A1F0AE014B5FEF
:101340005F4FBE016D5F7F4FCE0101960995898188
:101350009A81F701918F808F938B828B8B819C81F7
:10136000978B868BF80182818F778283F801E680E4
:10137000F780C70180960E944A06882309F49CCF13
:10138000F701808191810E94F904882309F494CFA8
:1013900098CFCF93DF93EC018881882341F0CE0171
:1013A0000E94400918821A82DF91CF91089581E04E
:1013B000F9CF85ED8093BC008091BC0084FDFCCF0B
:1013C00010925C03089520914302260F3327331FA8
:1013D00021323105ECF420915C03FC0190E080E0C7
:1013E000243069F082E00895A09143022191AC017C
:1013F0004D5D5D4FA40FB52FB11D2C93019686173F
:1014000098F380914302680F6093430280E008954F
:1014100081E008950895E0917E0380917D03E817AF
:1014200030F4F0E0E35AFC4F808190E008958FEFB4
:101430009FEF0895CF92DF92EF92FF920F931F9349
:10144000CF93DF937C01CB018A01209112032223E9
:1014500089F0EB016B01C40ED51ECC15DD0569F0DA
:101460006991D701ED91FC910190F081E02DC701C8
:101470000995F3CF642F0E94E309C801DF91CF9152
:101480001F910F91FF90EF90DF90CF900895CF9331
:10149000DF931F92CDB7DEB7698320911203222319
:1014A000F9F020913503203258F021E030E0FC01C2
:1014B0003383228390E080E00F90DF91CF910895F5
:1014C00080911303E82FF0E0EC5EFC4F998190834C
:1014D0008F5F809313038093350381E090E0ECCF1E
:1014E00061E0CE0101960E94E309F7CF81E00C9400
:1014F0005901CF93DF93D82FC62F88E60E94B601FB
:101500006D2F8CE194E00E94470A6C2F8CE194E0EF
:101510000E94470A8CE194E0DF91CF910C94760A07
:101520001F93CF93DF93EC0188E60E94B60160E041
:101530008CE194E00E94470A2D811AE0822F612FEE
:101540000E94B72F682F660F680F660F620F8CE13D
:1015500094E00E94470A2C81822F612F0E94B72FAE
:10156000682F660F680F660F620F8CE194E00E948F
:10157000470A2B812F7B822F612F0E94B72F682F64
:10158000660F680F660F620F8CE194E00E94470AB5
:101590006E818CE194E00E94470A2A81822F612F9C
:1015A0000E94B72F682F660F680F660F620F8CE1DD
:1015B00094E00E94470A2981822F612F0E94B72F51
:1015C000682F660F680F660F620F8CE194E00E942F
:1015D000470A2881822F612F0E94B72F682F660F3C
:1015E000680F660F620F8CE194E00E94470A8CE15D
:1015F00094E0DF91CF911F910C94760A411551052B
:1016000029F4EAE7F0E080818F7780836A30710502
:10161000B9F0CB01880F991F880F991F80726770EE
:101620006860682B88E10FB6F894A89580936000F5
:101630000FBE60936000E0E6F0E08081806480830C
:10164000232BD9F483B7817F846083BFF89483B759
:10165000816083BF85B7806685BF8F7D85BF7894A5
:10166000889583B78E7F83BF7894452B29F4EAE76A
:10167000F0E0808180688083089583B7817F8460F3
:1016800083BFF89483B7816083BF7894889583B7CC
:101690008E7F83BF7894E9CFEF92FF920F931F93D1
:1016A000CF93DF93EC0169813881432F50E02A8189
:1016B000822F90E0E8E6F0E021E0261730F4749104
:1016C000870F911D2F5F3196F8CF633018F033707C
:1016D00009F401966DE671E0469F9001479F300D39
:1016E000569F300D1124215031094D5F5F4F5695A3
:1016F000479556954795240F351F280F391FA8E1A8
:10170000B0E00E94982F2B817B018C01E20EF11C2E
:10171000011D111DA8019701ACE3B0E00E94562FF6
:101720002C817B018C01E20EF11C011D111DA80111
:1017300097010E94562F2D81620F711D811D911DF1
:1017400060587C4B8249974CDF91CF911F910F914C
:10175000FF90EF9008958F929F92AF92BF92CF9299
:10176000DF92EF92FF92CF93DF93EC016A017B014E
:1017700080E8C81A83E4D80A8DE6E80A88E3F80A04
:101780008CE3882E912CA12CB12CC701B601A501A8
:1017900094010E94F92F6D83CA01B901A50194013A
:1017A0000E94F92F6C83C701B60120E13EE040E0C2
:1017B00050E00E94F92FCA01B90128E130E040E071
:1017C00050E00E94F92F6B83C701B60120E831E594
:1017D00041E050E00E94F92F188263E97EEF4881D2
:1017E000542F537081E009F080E090E0FC01E35950
:1017F000FE4F2E173F0740F0FB01E81BF90B2E0FA1
:101800003F1F4F5F4883EBCF81E089838981682F39
:101810006150770BFB01E859FF4FE491511103C070
:10182000823009F4EF5FF0E02E173F0720F02E1B07
:101830003F0B8F5FEACF2F5F2A83DF91CF91FF901D
:10184000EF90DF90CF90BF90AF909F908F900895D2
:101850001F93CF93DF93EA01122FDC0111968D9134
:101860009C91DC01ED91FC910280F381E02D0995C2
:10187000C817D90729F4812F0E94590191E08111DD
:1018800090E0892FDF91CF911F910895CF93DF933F
:10189000EC018B81882371F088810E94B6018981D7
:1018A0009A810E94760A91E0811190E0892FDF9160
:1018B000CF9108950E946A0381E08B83CE010E943C
:1018C000460C982F8111E8CFF1CFFC012081243202
:1018D00009F40196FC0120E0CF013191332341F05E
:1018E0003A3231F02327F8CF305D08C0205D0CC0BC
:1018F000322F32953F703A30B8F3395CFB013083B8
:101900002F702A3098F3295CFB0121830895CF9230
:10191000DF92EF92FF920F931F93CF93DF9300D04C
:10192000CDB7DEB70EE310E08FE793E00E947102BF
:10193000181619065CF58FE793E00E944F02849712
:1019400041F584E28093CE020FEC12E08AE3C82EC8
:10195000D12CEE24E394F12C8FE793E00E947102E6
:1019600018161906DCF4C60102968E159F05B4F010
:101970008FE793E00E944F028A3209F46701F80171
:1019800081938F01FFEFEF1AFF0AE6CF0EEC12E012
:10199000DDCF0150110941F680E017C0F801108237
:1019A000BE016F5F7F4FC8018E199F090E94650CB1
:1019B000FC0180818A3281F7918189819813ECCF73
:1019C00081E022819A812913E7CF0F900F90DF9158
:1019D000CF911F910F91FF90EF90DF90CF900895DE
:1019E000089590E080E0089541E00E941701109270
:1019F0007E0380937D030895CF93C82F88E60E94CD
:101A0000B6016C2F8CE194E00E94470A8CE194E0CF
:101A10000E94760A61E070E088E690E00E94F40C93
:101A20000E940401CF9108956CE18EE00E94790A32
:101A30006AE070E080E090E00E94C10382E00E94D2
:101A4000FC0C682F6F7B82E00E94790A6AE070E0EC
:101A500080E090E00E94C10381E008950F931F93FE
:101A6000CF93C82F809145040E94B6016C2F0C2E95
:101A7000000C770B605C7F4F8CE194E00E94470A7A
:101A80008CE194E00E94760ACF70C43009F440C023
:101A90007CF5CC23C1F163E070E080E090E0C230DF
:101AA00079F1809145040E94B60160E08CE194E0F8
:101AB0000E94470A8CE194E00E94760A80914504D6
:101AC00063E070E090E00E94F40C90917D038091BF
:101AD0007E03981739F10E9404018093CD020E9481
:101AE00004018093CC020E9404018093CB02EDCFCD
:101AF000C63099F06AE070E080E090E0C83089F686
:101B00000E94C103CECF61E070E080E090E0F8CFAA
:101B100064E070E080E090E0F3CF66E070E080E0A9
:101B200090E0EECF6091CD0270E090E080E0CB01DC
:101B3000772766270091CC0210E030E020E0322FBA
:101B4000212F102F0027600F711F821F931F2091DC
:101B5000CB02620F711D811D911DCF911F910F91BD
:101B60000895CF92DF92EF92FF920F931F93CF933E
:101B7000DF9300D000D000D01F92CDB7DEB788E64B
:101B80000E94B60160E08CE194E00E94470A8CE17B
:101B900094E00E94760A68E070E088E690E00E9497
:101BA000F40C0E9404019C0194E0359527959A95C8
:101BB000E1F72F703327922F990F990F122F191BCE
:101BC000110F180F0E9404019C0144E035952795E0
:101BD0004A95E1F72F703327922F990F990F022F13
:101BE000091B000F080F0E9404018F73282F30E09B
:101BF00054E0359527955A95E1F7922F990F990F53
:101C0000F22EF91AFF0CF80E0E940401C82E0E9451
:101C100004019C0164E0359527956A95E1F72F70E2
:101C20003327922F990F990FE22EE91AEE0CE80E46
:101C30000E9404019C0174E0359527957A95E1F79F
:101C40002F703327922F990F990FD22ED91ADD0CAE
:101C5000D80E0E940401AC01E4E055954795EA9541
:101C6000E1F74F705527942F990F990F242F291BB7
:101C7000220F280F3D2DA701B8018C2D90E027964B
:101C80000FB6F894DEBF0FBECDBFDF91CF911F918D
:101C90000F91FF90EF90DF90CF900895EF92FF9219
:101CA0000F931F93CF93DF9300D000D000D01F92EB
:101CB000CDB7DEB77C018B010E94B10D5C836D83D3
:101CC0007E83822F90E0449680389105D8F53D3090
:101CD000C8F54032B8F550E2359F90011124242B0D
:101CE000982F8827990F282B392BF70131832083D0
:101CF0002E814D818C81883140F54C3330F52C3369
:101D000020F590E0982F8827990F990F990FF0E20E
:101D10004F9FA0011124842B952B30E035952795FA
:101D2000822B932BF8019183808327960FB6F8942A
:101D3000DEBF0FBECDBFDF91CF911F910F91FF90FE
:101D4000EF90089530E020E0D0CF90E080E0EACF3F
:101D50000F931F93CF93DF9300D0CDB7DEB7898366
:101D60006A830091310410913204F80184819581D5
:101D7000029760F080810E94B60121E042E050E0CD
:101D8000BE016F5F7F4FC8010E94280C0F900F901B
:101D9000DF91CF911F910F910895BF92CF92DF9263
:101DA000EF92FF920F931F93CF93DF93DC01149672
:101DB000ED91FC91EF2B09F446C0E901C52EB42E3C
:101DC0007B018C01FC0180810E94B60120E041E092
:101DD00050E0B701C8010E94280CD82E882399F141
:101DE000D80114968D919C9115978C179D0758F1E9
:101DF00041E06C2F8C910E94170110927E0380931A
:101E00007D038C171D06F9F4EB2CFC2CCE0DDF1D89
:101E1000F80181819281DC01ED91FC910284F385CE
:101E2000E02D0995F70181937F01CE17DF0781F738
:101E30008D2DDF91CF911F910F91FF90EF90DF904B
:101E4000CF90BF900895D12CF3CFCF93DF9300D0E4
:101E5000CDB7DEB71A821982898322E030E0AE0165
:101E60004F5F5F4FBA0180913104909132040E941C
:101E7000CD0E89819A819827892798270F900F90F6
:101E8000DF91CF910895CF93DF931F92CDB7DEB747
:101E9000898321E030E0AE014F5F5F4FBA0180914E
:101EA0003104909132040E94CD0E89810F90DF9110
:101EB000CF910895CF93DF9384EF91E00E94402F5C
:101EC000C0E1D3E0888385EF91E00E94402F8983B1
:101ED000CE01DF91CF910895FC01808181110FC067
:101EE00080E2DF01982F1D929A95E9F77783668348
:101EF000DB0115969C91903129F0903211F080E031
:101F0000089580E4808381E082830895BF92CF9218
:101F1000DF92EF92FF920F931F93CF93DF93EC0129
:101F2000C888D988EA88FB88D701C60155E0B695EC
:101F3000A795979587955A95D1F7182F1F7011F08F
:101F40006111E3C03A8130FFB6C02881422F48704A
:101F5000B42E23FF19C0888D998DAA8DBB8D8C1945
:101F60009D09AE09BF0982309105A105B105D8F4DC
:101F70000097C9F430E020E0281B390B213009F428
:101F8000A6C090E080E0B7C025FF0DC0EE81FF81C4
:101F90008681978145E0880F991F4A95E1F78C1556
:101FA0009D0509F48CC0EE81FF81B701A60189E08F
:101FB00076956795579547958A95D1F725FF21C066
:101FC000848D958DA68DB78D480F591F6A1F7B1F75
:101FD0008E819F8120E080960E948806892B09F4DB
:101FE0006AC088899989AA89BB890196A11DB11DFA
:101FF000888B998BAA8BBB8B21E030E090E080E04E
:10200000BBCF03810423C6019170892B81F4011198
:102010000EC0CD28CE28CF2881F526FF29C0848D7B
:10202000958DA68DB78D8C879D87AE87BF87EE81F6
:10203000FF814C855D856E857F8542505109610920
:102040007109848104C0440F551F661F771F8A954C
:10205000D2F780899189A289B389840F951FA61F21
:10206000B71FAC01BD01400F511D611D711DB0CFE7
:102070008C8D9D8DAE8DBF8DD6CF4C855D856E854B
:102080007F85BB2059F036FF09C04F5F5F4F6F4F10
:102090007F4F4C875D876E877F87C9CF9E01245F06
:1020A0003F4FCF010E943D0787FD05C08111BFCF83
:1020B0008881807739F489818260898362CF30E0BA
:1020C00020E09CCF21E030E081E090E055CF88898E
:1020D0009989AA89BB894F96A11DB11D888B998BBF
:1020E000AA8BBB8B8E819F818B9640E2149F9001BF
:1020F0001124820F931FDF91CF911F910F91FF90B9
:10210000EF90DF90CF90BF90089580E2C80ED11C71
:10211000E11CF11CC88AD98AEA8AFB8AE3CF2F9294
:102120003F924F925F926F927F928F929F92AF9267
:10213000BF92CF92DF92EF92FF920F931F93CF93B4
:10214000DF93CDB7DEB72E970FB6F894DEBF0FBE84
:10215000CDBF8C01FB01DC018C91807711F480E014
:1021600068C380914B048111FACF81809280808175
:102170008370AA24A394882349F0C4010C966DE0CF
:1021800070E00E94C32FAA24A394A60E4F836F0170
:1021900040E050E0BA01C8010E94BD0718861A86C7
:1021A0001E82212CB12C312C1986F6013696FC8723
:1021B000EB878A2D8150990B9E878D87D801509689
:1021C0004D905D906D907C90539725E07694679448
:1021D000579447942A95D1F7720161E0C8010E9493
:1021E000860FFC01892B09F081C0F80181818111E2
:1021F000B6CFEF81E4FFB3CF8E2F83708150823052
:1022000008F0ADCFBB2011F0E884FA84BA1408F0CE
:102210007AC160E0C8010E94860F892B09F050C185
:10222000D80111968C9181119ACFF801808185FD9A
:1022300096CF80899189A289B38981159E4FAF413C
:10224000B10508F08CCFC8010E948D08882309F4DD
:1022500086CFD8011696ED91FC9117971C962D907C
:102260003D904D905C901F97B2E02B1A31084108C9
:102270005108848104C0220C331C441C551C8A95CF
:10228000D2F780899189A289B389280E391E4A1E06
:102290005B1E25E0B201A101CF0180960E94880655
:1022A0003C01009709F45BCFFC0180E092E01192C1
:1022B0000197E9F791E09E83D8011696ED91FC9184
:1022C0008281BE81B81708F0FDC09301B201A1015F
:1022D0004B0F511D611D711D808191810E94B905B7
:1022E000882309F43CCF9E819F5FE5CF2081253E66
:1022F00011F021110EC0B11002C048865A86BA14DE
:1023000008F4B394222309F474CF253E21F4312C30
:1023100055CFBA1470F12E32D1F333853F3009F026
:102320005FC0311028C026FF49CF2F71222E8D8526
:102330009E852817190609F041CF95859E83322E78
:10234000822D8150990BAC019DE0949F9001959F47
:10235000300D112428153905D0F6F12CA4E0AF1565
:1023600090F08181928182169306B1F4892B79F6DF
:1023700025CFB12CD0CF2A942211C9CF2585AE818B
:102380002A17F1F2C4CFBAE0BF1518F08481958105
:10239000EACF86819781E7CF8F3F910511F008F052
:1023A000B6CF4FEB480F4A3108F4805EB9016F5F3A
:1023B0007F4FD60113964D915C91240F351FD901A3
:1023C0009C912FEB290F2A3108F4905E98139FCF30
:1023D000F3943296BDE0FB1609F4F0CE9B01BECF1C
:1023E00033FD95CF332009F45AC021E02212B7CE35
:1023F0009F01255F3F4F90E090FB979597F9819162
:10240000980F2E173F07C1F78E818913A8CEBF8181
:10241000B6FDA5CEEBE4F4E080E2DF011D928A95E3
:10242000E9F7F801A681B781B0935204A093510453
:10243000F0925004E0924F04448D558D668D778D57
:10244000409353045093540460935504709356047E
:10245000FD01BB962FE0E222FF2435E0EE0CFF1CCD
:102460003A95E1F7EE0DFF1D838583FD13C0982F8C
:102470009771887109F498C190934B0430924E047F
:102480008F818370813009F4EFC108F48FC18230ED
:1024900009F4E8C110924B0410924D0460CE4BE059
:1024A00050E06B857C85CF010E941031892B09F0AB
:1024B00085CED6018C9180FFAACF91E099877ECE00
:1024C000B394A4CE848120E032E002C0220F331FF7
:1024D0008A95E2F7D80150964D915D916D917C916E
:1024E0005397420F531F611D711D50964D935D937D
:1024F0006D937C9353978281823028F4B0E1BB0EB8
:10250000BA1408F492CEE985EE2309F458C0D60136
:102510001596BC9082E0682E712C9EE7392E26011C
:10252000B6E04B0E511CF601818192819C01260D73
:10253000371D0380F481E02D8E0F9F1F8E179F079C
:1025400079F0A901B5E0440F551FBA95E1F7240FC2
:10255000351F4191042E000C550B24273527EECF53
:10256000F3E0FB1510F4A3E0BA2E94E09B0D822F4C
:102570008F708A3008F08FC0805DF601E90FF11D81
:102580008683F4E036952795FA95E1F79150B916D0
:1025900070F3F601EB0DF11D368240E050E0BA0118
:1025A000C8010E94BD0761E0C8010E94860F009724
:1025B00009F073C0D80111968C918111D0CDA7017B
:1025C00070E060E0E5E0440F551F661F771FEA9555
:1025D000D1F7C8010E94BD07882309F4C0CD332478
:1025E0003A943A0CB32CA32C6894A6F85FE0752EAD
:1025F000760181E1E80EF11C6DE0662EBB2009F446
:1026000079C060E0C8010E94860FFC01892B09F4A3
:10261000A6CDD80116962D913C91D90190968C911A
:102620009097816090968C938A2D3B108B2D8083A0
:1026300073861486D601169690E090FB979597F9CD
:102640002D91920FEA16FB06C1F79587138E128E15
:10265000D60113962D913C918F718150990B689EF4
:10266000A001699E500D112480E04815590578F5A8
:10267000D901A40FB51F6C91062E000C770B853085
:1026800088F5728361838F5F4F5F5F4F32968D3025
:1026900061F7BA94B3CF895C70CFFC01208122230B
:1026A00009F48DCF238523FD7ECF4BE050E0BC01A4
:1026B000C2010E941031892B09F075CFFFEF6F1A0C
:1026C0007F0A24E66216710409F02DCF48CD61E03F
:1026D00070E08416950611F470E060E071956195E4
:1026E0007109CDCF8B3018F475836483CCCF778399
:1026F0006683C9CFF801408851886288738860E09A
:10270000C8010E94860F5C01892B09F428CD80E264
:10271000D5011D928A95E9F7F60136968BE0D50131
:1027200001900D928A95E1F7F60180818871D501BB
:102730001C968C931C97E0910A03F0910B03309741
:1027400021F1AE014B5F5F4FBE016F5F7F4FCE0146
:10275000039609958B819C81F501918B808B8981F2
:102760009A81978786878D81858745E076946794DF
:10277000579447944A95D1F77201D8011696ED9176
:10278000FC9180A1816080A345CE81E29AE55196BB
:102790009C938E93509759969C938E9358975396EB
:1027A0009C938E935297E1CF986066CE81E08093A0
:1027B0004D0490914D0491FF05C080914B048171AF
:1027C00009F068CE4F814870492B40934D0497968D
:1027D0008D919D910D90BC91A02D80935F0490935D
:1027E0006004A0936104B093620484899589B0E089
:1027F000A0E0DC0199278827428D538D70E060E0CE
:10280000842B952BA62BB72B809367049093680499
:10281000A0936904B0936A04848D958DA68DB78DBD
:102820008093630490936404A0936504B09366045A
:1028300081E02E960FB6F894DEBF0FBECDBFDF91BC
:10284000CF911F910F91FF90EF90DF90CF90BF90AD
:10285000AF909F908F907F906F905F904F903F9040
:102860002F90089583E0A3CF82E0A1CF2F923F92D3
:102870004F925F926F927F928F929F92AF92BF9290
:10288000CF92DF92EF92FF920F931F93CF93DF933C
:10289000CDB7DEB7E6970FB6F894DEBF0FBECDBF5B
:1028A000D62E19821A821B8220914B042223D1F04A
:1028B00080E0E6960FB6F894DEBF0FBECDBFDF9185
:1028C000CF911F910F91FF90EF90DF90CF90BF902D
:1028D000AF909F908F907F906F905F904F903F90C0
:1028E0002F900895DC012C91207711F320910201A3
:1028F000E2E0F1E002E011E02F32B9F48F01219122
:102900002F32E1F3DC0116966D917C91211105C007
:102910008BE494E00E946C0FCCCFCE0101960E9414
:102920006C0F882329F2CE010196FE01F296FEABD0
:10293000EDABF801AF014F5F5F4F2081203209F40A
:1029400097C0FDA3ECA3AF01BA016E1B7F0B8A01F8
:10295000DA012D91AD01222371F02F3209F08AC0E6
:102960009F01260F371F8901D9014D919D014032EA
:10297000D1F34F32C1F3DB01AE0FBF1FBD016E1BA0
:102980007F0BAE17BF0709F48FC02E912E32B1F323
:102990002032A1F36F3F710511F00CF089CF7BA3BA
:1029A0006AA3DE0197965D0120E22D93EDA8FEA8B3
:1029B000AE15BF05D1F7DF019D012E1B3F0B4D91D9
:1029C0004E32D1F34032C1F388248394211531056E
:1029D00009F0812CAB01415051097F01E60EF71E31
:1029E0004F3F540709F063C09EA0612CA7E07A2EE8
:1029F000312C512CB8E04B2E261737070CF095C020
:102A0000DF01A20FB31FEC90ECAAAE2DA03209F4A7
:102A10008AC0AE3221F42417350709F084C0CCA84F
:102A2000BC2DB232A1F0BC3791F0BA52B63018F4D6
:102A3000AC2DAD3261F4BCA9BA53B63040F0BCA99C
:102A4000BB55B33020F0BCA9B152BE35D0F124172C
:102A5000350709F0ADC0BAE0EB2E7E1409F4B3C01F
:102A60009A01AAE07A2EB8E03B2EA0E14A2E46C099
:102A7000FA0160CF2C3509F41BCF322F377F323269
:102A800009F416CF2A3309F413CF322F3F7B3C339E
:102A900009F40ECF32EC320F323008F409CF205255
:102AA0002F3508F451CF04CF70E060E078CFD70124
:102AB000CE907D01BEE2CB1609F496CF415051096C
:102AC0008FCF2417350739F2731408F474C0BCA9EA
:102AD000B156BA31D8F4BCA9B052BCAB6428222498
:102AE0002394230C7501E30CF11CD701ECA8EC92A4
:102AF000A6E0FA2E322CF21408F0922C2F5F3F4FF2
:102B00007BCF812CAFE5ACABBFE5CB2EBFEBBC0DD3
:102B1000BA3128F75428E3CF9A01BAE07B2EA8E017
:102B20003A2EB0E14B2E812CE9CF9EA22FA120326C
:102B300009F4BECE882011F1562011F022E0622E59
:102B400069A2F8012081222361F140E0BE016F5D9E
:102B50007F4F0E948F10882309F4AACE80E2EBE415
:102B6000F4E0DE01119601900D928A95E1F78BE475
:102B700094E00E94C909CE010196DBCE21E029A391
:102B8000292D30E0F501E20FF31F4EE7408348E2C4
:102B900050E04C0F5D1F240F351F41E3D9014C93CA
:102BA000D0CF4D2DBE016F5D7F4F0E948F1081CE23
:102BB000731408F0A6CFAAE0FA2E7F1421F0421772
:102BC00053070CF0A9CF9EA2812CB0CF4F925F92F9
:102BD0006F927F928F929F92AF92BF92CF92DF922D
:102BE000EF92FF920F931F93CF93DF93EC01D62EBA
:102BF0008E8181FF10C07E0194E0E90EF11C83FDFF
:102C000020C08C889D88AE88BF88EFEF8E169E0608
:102C1000AE06BE0601F58D8181608D838FEF9FEF3B
:102C2000DF91CF911F910F91FF90EF90DF90CF90A8
:102C3000BF90AF909F908F907F906F905F904F90DC
:102C400008954C8D5D8D6E8D7F8DC7010E94BD07EF
:102C50008111D7CFE0CF8A859B85FC01C380B50168
:102C6000A40129E076956795579547952A95D1F760
:102C7000C42284011170C11023C0488959896A890E
:102C80007B890115110509F0D4C041155105610575
:102C9000710509F4A0C02E8126FF73C04C8C5D8C99
:102CA0006E8C7F8C84149504A604B70408F069C068
:102CB0004F5F5F4F6F4F7F4F488B598B6A8B7B8B7A
:102CC000EA85FB85488959896A897B89425051097F
:102CD00061097109848104C0440F551F661F771F65
:102CE0008A95D2F780899189A289B389840F951F2B
:102CF000A61FB71FAC01BD014C0D511D611D711DFB
:102D00000115110509F0A9C08C889D88AE88BF887F
:102D10008C8D9D8DAE8DBF8D88169906AA06BB063B
:102D200018F48E8185FF99C025E0CF0180960E941E
:102D30008806009709F46FCF800F911FFC01D082A5
:102D40000F3F114009F463C08C899D89AE89BF890A
:102D50000196A11DB11D8C8B9D8BAE8BBF8B4C8DB5
:102D60005D8D6E8D7F8D481759076A077B0708F0C8
:102D700056C08C8F9D8FAE8FBF8F8E8180688E8363
:102D800055C09E01205F3F4F0E943D0787FD43CF06
:102D9000811106C0C7010E948D08882309F43BCF2A
:102DA000EA85FB85488959896A897B89425051099E
:102DB00061097109848104C0440F551F661F771F84
:102DC0008A95D2F780899189A289B389480F591FC2
:102DD0006A1F7B1F99CF88A199A1AAA1BBA10097C7
:102DE000A105B10579F4C7010E948D08882309F473
:102DF00012CF88899989AA89BB8988A399A3AAA394
:102E0000BBA35ECF888B998BAA8BBB8B59CF8A854E
:102E10009B8580960E944A06811196CFFCCE8091B8
:102E20000A0390910B03892B09F0A7CF81E090E072
:102E3000F7CE4250510961097109848104C0440FE1
:102E4000551F661F771F8A95D2F780899189A289BD
:102E5000B389480F591F6A1F7B1F21E066CFFB0112
:102E600001900020E9F73197AF01461B570BDC01B9
:102E7000ED91FC910280F381E02D09940F931F9353
:102E8000CF93DF93EC010E94EF018C0163E571E0C9
:102E9000CE010E942F17800F911FDF91CF911F91BC
:102EA0000F9108958F929F92AF92BF92EF92FF92EF
:102EB0000F931F93CF93DF93CDB7DEB7A1970FB6D4
:102EC000F894DEBF0FBECDBF7C01FA01CB0119A281
:102ED000223008F42AE08E010F5D1F4F822E912CC4
:102EE000B12CA12CBF01A50194010E94D72FF9019B
:102EF000CA016A300CF5605DD8016E938D01232BF9
:102F0000242B252B79F790E080E0109721F0BD016C
:102F1000C7010E942F17A1960FB6F894DEBF0FBE0F
:102F2000CDBFDF91CF911F910F91FF90EF90BF9098
:102F3000AF909F908F900895695CDECF0F931F93A1
:102F4000CF93DF93EC010E942F178C0163E571E0B2
:102F5000CE010E942F17800F911FDF91CF911F91FB
:102F60000F9108950F931F93CF93DF9300D0CDB7A8
:102F7000DEB78C01BE016F5F7F4F0E94650C84E25B
:102F80000E94F902B8018FE793E00E942F178AE2AE
:102F90000E94F90289810E94F9028A810E94F90245
:102FA00063E571E08FE793E00E942F178FE793E0CE
:102FB0000E94FE020F900F90DF91CF911F910F9111
:102FC00008958F929F92AF92BF92CF92DF92EF922D
:102FD000FF921F93CF93DF9300D000D000D01F92B9
:102FE000CDB7DEB769017A014B015C018C0C9D1CE9
:102FF000AE1CBF1C0E94B10D29833A834B835C83B6
:103000006D837E838F83CE0101960E944C0B6D5F92
:103010007F4F8F4F9F4F86169706A806B90608F474
:103020006DC0B501A401CE0101960E94AB0B87E0F3
:10303000FE013196A7ECB6E001900D928A95E1F77A
:103040006DE18EE00E94790A2091CC061AE0822F71
:10305000612F0E94B72F682F660F680F660F620FEF
:1030600087E00E94790A2091CB06822F612F0E946F
:10307000B72F682F660F680F660F620F88E00E94F7
:10308000790A2091CA06822F612F0E94B72F682FDC
:10309000660F680F660F620F6F7B89E00E94790AE6
:1030A00060E88AE00E94790A8EE00E94FC0C682F9A
:1030B00060648EE00E94790A8BE494E00E94C90962
:1030C00021E030E050E040E064E070E082E292E035
:1030D0000E94FE0A86E591E00E94B2178FE00E94EE
:1030E000FC0C682F6E7F8FE00E94790AA8EEB3E097
:1030F000A70196010E94562F0E94C10327960FB682
:10310000F894DEBF0FBECDBFDF91CF911F91FF902E
:10311000EF90DF90CF90BF90AF909F908F900895E9
:10312000FF920F931F93CF93DF93EC01F62E08814C
:103130001981C8010E94402FF81621F06F2DC80197
:103140000E94482FCE01DF91CF911F910F91FF90E8
:103150000895EF92FF920F931F93CF93DF9300D0C8
:10316000CDB7DEB78CE0E82E83E0F82E10E000E06B
:103170001A830983F70161917F01CE0101960E94B4
:1031800090180F5F1F4F0430110591F78CE093E00A
:103190000F900F90DF91CF911F910F91FF90EF90C3
:1031A0000895EF92FF920F931F93CF93DF9300D078
:1031B000CDB7DEB7809128049091290408E214E08D
:1031C0009C01285234407901C701800F911F9A83D6
:1031D0008983F8016381CE0101960E9490180F5FE8
:1031E0001F4FF4E00E321F0779F70F900F90DF9119
:1031F000CF911F910F91FF90EF9008951F920F9222
:103200000FB60F9211242F933F934F935F936F93B9
:103210007F938F939F93AF93BF93EF93FF938FE72A
:1032200093E00E949102FF91EF91BF91AF919F9126
:103230008F917F916F915F914F913F912F910F905F
:103240000FBE0F901F9018951F920F920FB60F92FE
:1032500011242F938F939F93EF93FF93E0918F030C
:10326000F09190038081E0919503F091960382FDA7
:103270001BC09081809198038F5F8F732091990379
:10328000821741F0E0919803F0E0E158FC4F958FF0
:1032900080939803FF91EF919F918F912F910F90C1
:1032A0000FBE0F901F9018958081F4CF1F920F9240
:1032B0000FB60F9211242F933F938F939F93AF9349
:1032C000BF938091670290916802A0916902B091CA
:1032D0006A023091660226E0230F2D3768F129E853
:1032E000230F0396A11DB11D2093660280936702F0
:1032F00090936802A0936902B0936A0280916B0276
:1033000090916C02A0916D02B0916E020196A11D88
:10331000B11D80936B0290936C02A0936D02B093E9
:103320006E02BF91AF919F918F913F912F910F901E
:103330000FBE0F901F9018950296A11DB11DD4CFFE
:103340001F920F920FB60F9211242F933F934F931A
:103350005F936F937F938F939F93AF93BF93EF93FD
:10336000FF938091B900887F803609F44AC0F0F558
:10337000883209F4A7C018F5803109F49BC0B8F46D
:10338000882309F4F9C0883009F494C0FF91EF91C3
:10339000BF91AF919F918F917F916F915F914F916D
:1033A0003F912F910F900FBE0F901F90189588316D
:1033B00009F488C0803251F780935A0314C08034D6
:1033C00009F49DC040F48033B9F38833F9F6809353
:1033D0005A0385ECB0C0803509F485C0883509F4FE
:1033E00096C0883499F60E94D909D0CF883909F45B
:1033F0008CC038F5883729F050F4883611F08037C2
:1034000029F683E080935C031092650257C08838E8
:1034100009F47BC0803919F0803809F0B7CF80916A
:103420006502803208F071C0E091650281E08E0F84
:10343000809365028091BB00F0E0EB5BFD4F8083E1
:103440003DC0803B39F0E0F4803A09F479C0883A15
:1034500009F09CCF84E080935C03109244021092A8
:103460004302E091C902F091CA020995809143029A
:1034700081110FC081E0809343021092230209C0A2
:10348000803C09F4A6CF883C09F4A3CF883B09F01F
:103490007DCFE091440281E08E0F80934402F0E002
:1034A000ED5DFD4F80818093BB009091440280913F
:1034B000430229C0809157038093BB0085EC809321
:1034C000BC0064CF9091590380915803981758F528
:1034D000E091590381E08E0F80935903F0E0EA5C9C
:1034E000FC4F8081E9CFE091590381E08E0F8093FA
:1034F00059038091BB00F0E0EA5CFC4F808390911F
:103500005903809158039817C8F285E8D8CFE09105
:10351000590381E08E0F809359038091BB00F0E046
:10352000EA5CFC4F808380915B0381115CCF81E07A
:103530008093560384EA8093BC0010925C0326CFEC
:1035400085EC8093BC0010925C0380916502803210
:1035500030F4E0916502F0E0EB5BFD4F108260918A
:10356000650270E0E091C702F091C80285E492E044
:103570000995109265020ACF10925A0334CF1F9218
:103580000F920FB60F9211248F930FB6F894A8954F
:1035900080916000886180936000109260000FBE8F
:1035A0008F910F900FBE0F901F901895FC01908186
:1035B00090539A3008F090E0818180532AE0929FE6
:1035C000800D11240895CF93DF93EFE7F3E013828A
:1035D000128288EE93E0A0E0B0E084839583A68316
:1035E000B78327E231E03183208325EC30E0358753
:1035F000248724EC30E03787268720EC30E0318BBD
:10360000208B21EC30E0338B228B22EC30E0358BA9
:10361000248B26EC30E0378B268B118E128E138E86
:10362000148EECE1F4E01382128284839583A683E6
:10363000B78389E391E0918380838AE691E00E94D9
:10364000D61ACEECD6E0888384E0898385E691E0C3
:103650000E94D61A8A838DE691E00E94D61A8B8347
:1036600080E791E00E94D61A8C8383E791E00E9464
:10367000D61A8D8340E050E0BA0187EC96E00E94B4
:10368000AB0B10927004109296061092970610924F
:10369000980680E58093BA0681E08093BB0680930C
:1036A000C10699E29093C3061092C606E7E4F4E0DF
:1036B000138212821482158216822BE431E0318348
:1036C0002083E8E2F4E027E030E03483238395E0D0
:1036D0009583868387832FE020871286118624E0D6
:1036E00030E03183208320E030E1348F238F26E7E0
:1036F000258F968F8283DF91CF910895CF93DF93AB
:10370000CDB7DEB7A2970FB6F894DEBF0FBECDBF20
:10371000789484B5836084BD85B5836085BD8091D0
:103720006E00816080936E0092E0909381008091A2
:10373000810081608093810080918000816080930E
:1037400080008091B10084608093B1008091B000CE
:1037500081608093B00086E880937A001092C10067
:10376000E0918F03F09190039083E0918B03F091AF
:103770008C031082E0918D03F0918E0383E08083AF
:1037800010929703E0919303F091940386E0808375
:10379000E0919103F0919203808188698083E091A8
:1037A0009103F091920380818F7D808382E390E08A
:1037B000A0E0B0E08093830390938403A0938503FB
:1037C000B09386030E946A030E945A0F04EF11E02F
:1037D000E5EFCE2EDD24D394809110039091110358
:1037E00001978E3F9F4F08F490C06FEA70E08FE71B
:1037F00093E00E943E178FE793E00E947102892BAD
:10380000D1F30E940004FC0197FD74C08D32910534
:1038100041F0C0970A9728F08FE793E00E944F028B
:10382000F0CF812C912C5401712CE130F105D9F0AD
:10383000ED32F10509F45BC0CF01C0970A9798F407
:10384000AAE0B0E0A50194010E94562F4F01FF0F9E
:10385000AA08BB08860E971EA81EB91E30E3831A5D
:103860009108A108B1088FE793E00E944F020E94DF
:103870000004FC01C0970A97C0F2E130F105A9F2FB
:10388000772041F0B094A09490948094811C911C76
:10389000A11CB11CC40101978E3F9F4F78F51A837C
:1038A0000983682DCE0101960E949018DA82C982A0
:1038B000692DCE0101960E9490180E945A0F6BE864
:1038C00070E08FE793E00E94EF0140911003509168
:1038D000110370E060E02AE08FE793E00E94521746
:1038E00063E571E08FE793E00E942F1775CF77248F
:1038F0007394B9CF812C912C5401CCCF64EA70E041
:103900008FE793E00E943E1767CF86EF91E00E9419
:10391000402F888787EF91E00E94402F898788EFAA
:1039200091E00E94402F8A8789EF91E00E94402F0A
:103930008B878EEC96E00E944C0B088519852A85B2
:103940003B85601771078207930709F43CC181E04A
:10395000809372020E94140D91E0811101C090E0E9
:103960008091700290FB81F9809370028EEC96E05A
:103970000E94900A8EEC96E00E944C0B69837A8339
:103980008B839C83BE016F5F7F4F6B0106EF11E05D
:103990001D870C87D6016D916D01CE010C960E949A
:1039A00090180F5F1F4F0A3FB1E01B0789F70E9475
:1039B000A91866E771E08FE793E00E949E17809157
:1039C0000C0390910D03A0910E03B0910F03059786
:1039D000A105B10544F410920C0310920D0310924E
:1039E0000E0310920F030E94F4038B011092C40681
:1039F0001092C3061092C6068AE08093C2060E9407
:103A0000C00161E08091C2060E941E0382E580939E
:103A1000BA0681E08093BB06DFB6F89480916F020E
:103A2000811124C0E8E6F1E08491EFE7F1E09491A0
:103A3000E82FF0E0EE0FFF1FEC5AFE4FA591B49176
:103A4000EC91E92321F461E08AE00E941E038AE000
:103A50000E94C0018CB580618CBD8CB580648CBD2A
:103A60008DE00E94C0018BE00E94C00180916F0236
:103A70008F5F80936F02DFBE1092C00681E080935B
:103A8000C1068091C406811104C088EB96E00E94B3
:103A9000320461E08091C2060E941E034AE0D42EE7
:103AA0008FEF0E944204DA94D110FACF60E0809147
:103AB000C2060E941E033AE0D32E20E030E0A901A6
:103AC00060E088EB96E00E94AE04C82EE1E08E171D
:103AD00009F458C1DA94D11047C181E08093C3063C
:103AE00088EB96E00E94670488EB96E09093B70617
:103AF0008093B6061091C306111148C290936C04CE
:103B000080936B041092700441E050E060E070E03C
:103B10004093730450937404609375047093760417
:103B200090938D0480938C0410928B048FEF9FEF01
:103B3000DC018093920490939304A0939404B09337
:103B4000950420E040E050E0BA018BE894E00E9448
:103B50008806009709F41AC2FC01E254FE4F248142
:103B6000222309F413C220812F7709F00FC28A5350
:103B70009E4FDC018D909D90AD90BC90B501A4014D
:103B80008BE894E00E948806FC01892B09F4FEC1B1
:103B90008089823009F0FAC183859485811592402D
:103BA00009F0F4C1958590936D048FEF890F809390
:103BB0006E0481E0981709F451C11F5F193009F4B0
:103BC000A1C2880FF7CF1092710203E010E067E8FE
:103BD000C62E61E0D62E7EECA72E72E0B72E809125
:103BE00011038F93809110038F93DF92CF92BF9236
:103BF000AF920E9464318EEC92E00E94B21762E3B1
:103C000070E080E090E00E94C1030E94870C0F905A
:103C10000F900F900F900F900F90882309F482C09F
:103C200048E050E062E971E08EEC92E00E942631BB
:103C3000892B09F077C00E94140D91E0811101C019
:103C400090E08091700290FB81F98093700281E096
:103C5000809371028BE991E00E94B21764E670E0F4
:103C600080E090E00E94C1030E94870C8823B1F39A
:103C700061EA71E08EEC92E00E94812C63EA71E0CF
:103C80000E941D31892B09F09ACE61EA71E090E023
:103C900080E00E94812C0E945A2CAB01BC01CE0115
:103CA00001960E94AB0BCE0101960E94900A61EA38
:103CB00071E090E080E00E94812C0E945A2C609379
:103CC0000C0370930D0380930E0390930F030E94D7
:103CD000A91861EA71E090E080E00E94812C0E94C6
:103CE0005A2C6093750270937602809377029093BA
:103CF000780261EA71E090E080E00E94812C0E94ED
:103D00005A2C6093010168EA71E090E080E00E9423
:103D1000812C0E945A2C609300018AEA91E00E9453
:103D2000B2174DCE0150110909F059CF90E080E053
:103D30000E94402F80930C0381E090E00E94402F6E
:103D400080930D0382E090E00E94402F80930E0349
:103D500083E090E00E94402F80930F0380917002D7
:103D60008260809370022BCE8DEF0E94420428E087
:103D7000A22E22E0B22E0E944904F1E0AF1AB1084F
:103D8000D1F79BCE2AEA31E040E050E068E088EBD2
:103D900096E00E94AE0482FD10C082E08093C606C9
:103DA00094E0D92E0E9449048093C506DA94D1107C
:103DB000F9CF8A3A21F086E091CEC092C606809172
:103DC000C606812C912C5401823029F4812C912C2F
:103DD000A12C80E4B82E20E030E0A90167E388EB55
:103DE00096E00E94AE04A501940169E288EB96E09A
:103DF0000E94AE04882349F00E94F403601B710BFB
:103E0000613D774040F387E169CE8091C6068230FC
:103E1000D1F420E030E0A9016AE388EB96E00E944B
:103E2000AE04882311F082E159CE0E944904807CBF
:103E3000803C19F483E08093C6060E9449040E94E6
:103E400049040E94490488EB96E00E94670480E5DB
:103E50008093BA0681E08093BB0646CE10936F0430
:103E600086899789B0E0A0E08093770490937804E6
:103E7000A0937904B0937A04892B8A2B8B2B61F45D
:103E800084A195A1A6A1B7A180937704909378040B
:103E9000A0937904B0937A0486859785240135012F
:103EA000480E591E611C711C40927F045092800480
:103EB0006092810470928204218932893093720465
:103EC000209371048091770490917804A0917904F3
:103ED000B0917A04AC01BD01440F551F661F771FD6
:103EE000440D551D661D771D40938704509388042B
:103EF0006093890470938A0405E0220F331F0A95AA
:103F0000E1F721503E4F232F33272695420F531FB1
:103F1000611D711D40937B0450937C0460937D046C
:103F200070937E0443885488712C612C4114510491
:103F30006104710421F440A051A062A073A0841A0E
:103F4000950AA60AB70A840C951CA61CB71C04C0C7
:103F5000B694A794979487941A95D2F7B501A401C3
:103F60004F5F5F4F6F4F7F4F4093830450938404A4
:103F7000609385047093860405EF80160FE0900629
:103F8000A104B10468F48CE0809370048091700205
:103F90008E7F8093700286EB91E00E94B21736C04C
:103FA00020E115EF81161FEF9106A104B10468F01E
:103FB00044A555A566A577A540938704509388042A
:103FC0006093890470938A0420E2209370048093A4
:103FD0008E0490938F04A0939004B093910486E98B
:103FE00096E00E94C9096BE674E086E996E00E94BB
:103FF0006C0F882359F28BE694E09093B202809381
:10400000B102809170028160809370028091700291
:1040100081FD04C08FEB91E00E94B21780913104C2
:1040200090913204009711F00E94D12B86E090E02D
:104030000E94352B8C0183E1D8018C938CE194E0B4
:1040400012969C938E93119713961C92139780E26D
:1040500090E015969C938E931497109332040093DE
:1040600031040E946A0381E0F8018383C8010E9441
:10407000460CB82E81114AC0B12C80912A0491E0DF
:10408000882309F4C5C00E946A03809145040E94F8
:10409000B6016EE18CE194E00E94470A8CE194E065
:1040A0000E94760A6AE070E080E090E00E94C1031E
:1040B00001EA12E0680130EAA32E809145040E94D3
:1040C000B6016A2D8CE194E00E94470A8CE194E0ED
:1040D0000E94760A41E062E0809145040E94170147
:1040E000982E10927E0380937D0380917E03981614
:1040F000D9F10E9404018093CD020E9404018093B3
:10410000CB02F3CF88E080936F0440CF81E80E9418
:10411000430F807F803209F0AFCF60912B0482E89B
:104120000E94A80E60912D04653108F064E183E8D7
:104130000E94A80E10912E04183008F017E084E8B1
:104140000E94430F887F682F612B84E80E94A80E8D
:1041500010912F0484E80E94430F682F10FB67F929
:1041600084E80E94A80E89CF8091CD0290E0982F1C
:1041700088272091CB02820F911DD6018D939D93AC
:104180006D01A394A394B0EBAB1297CF6091AF02F3
:104190007091B002A62FAF70CB0188279093B00228
:1041A0008093AF0230E020E050E040E0FA01EE7F83
:1041B000EF55FD4F9081818140FF23C0292788E082
:1041C000F901220F331FF7FF02C0E0E33E278150C1
:1041D000B9F74F5F5F4F4031510541F77093B0021F
:1041E0006093AF02832F82958F70F80121913191F6
:1041F0008F01232B51F4F2E0013B1F07B1F790E050
:1042000007C0F12C28273F25DACF91E0A813F7CF7C
:1042100080917002B0FA82F990FB83F9809370026A
:10422000B11004C089EC91E00E94B2178091700235
:1042300083FD04C084ED91E00E94B217809170026A
:104240008F3031F162EE70E08FE793E00E943E170D
:10425000C0900C03D0900D03E0900E03F0900F037C
:1042600006E0C016D104E104F1040CF43DC30E9441
:10427000B10D29833A834B835C836D837E838F8367
:10428000CE0101960E944C0BA70196010E94E117F6
:1042900080917202811105C080917102882309F416
:1042A00024C380910101809330040E94D118809131
:1042B00000016AE00E94B72F80932D04682F85319A
:1042C00008F064E183E80E94A80E0E94D118C09013
:1042D0007502D0907602E0907702F09078021C147C
:1042E0001D041E041F048CF40E94B10D29833A831F
:1042F0004B835C836D837E838F83CE0101960E9406
:104300004C0BA70196010E94E1170E94B10D298371
:104310003A834B835C836D837E838F831F924F939D
:104320008A811F928F93898190E08053984F9F9349
:104330008F938DED91E09F938F931F928DE08F93DC
:1043400082E091E09F938F930E94343188EE91E058
:1043500090930B0380930A038EE49EE09093740283
:10436000809373028091B1029091B2020FB6F894DB
:10437000DEBF0FBECDBF009709F458C061E5855D73
:104380009D4F0E943614882309F450C08091D006B6
:104390001F928F938091CF061F928F938091CE06AC
:1043A00090E08053984F9F938F938EEE91E09F9370
:1043B0008F931F928BE08F938EEC92E09F938F935D
:1043C0000E94343167E371E087E494E00E94EF01DA
:1043D0006EEC72E087E494E00E949E176DEF71E04E
:1043E00087E494E00E942F1740911003509111032D
:1043F00070E060E02AE087E494E00E94521763E5F1
:1044000071E087E494E00E942F1763E571E087E490
:1044100094E00E942F1765EF70E087E494E00E941B
:104420003E170FB6F894DEBF0FBECDBF82E091E01D
:104430009F938F9385E191E09F938F938EEC92E011
:104440009F938F930E9464318EEC92E00E94B2178A
:104450000F900F900F900F900F900F900E94B10D42
:1044600029833A834B835C836D837E838F83CE0164
:1044700001960E944C0B6093B3027093B402809338
:10448000B5029093B6020E94F4036093B702709352
:10449000B8028093B9029093BA0212E410937C00A0
:1044A00080917A00806480937A0080917A0086FD02
:1044B000FCCF9091780080917900892798278927EF
:1044C0009093C6028093C5028091300480FF30C271
:1044D0008EE80E94430F682F6F7B8EE80E94A80E23
:1044E00060E180E80E94A80E80E80E94430F86FFEA
:1044F00018C285E80E94250F9093C0028093BF02E6
:104500008091300481FF20C28EE80E94430F682F03
:104510006F778EE80E94A80E68E080E80E94A80EDF
:1045200080E80E94430F85FF08C287E80E94250F9C
:104530009093C2028093C10280912A04882311F4CF
:104540000C94262B809130048C7011F40C94262B43
:104550008091430490914404811521E0920709F071
:10456000F8C180E00E942E0D60933B0470933C04E0
:1045700080933D0490933E0480E10E942E0D609351
:104580003F047093400480934104909342048091CF
:10459000AB029091AC02B0E0A0E0BA2FA92F982F07
:1045A000882740913F0450914004609141047091EC
:1045B00042048A019B01081B190B2A0B3B0B0E8737
:1045C0001F87288B398B6091AD027091AE0290E00D
:1045D00080E0A90198010E947030F22E032F142F61
:1045E000B52FF62FE72FD82EE92EA0E00E94FE303F
:1045F00084F42150310940485F4F6F4F7F4F8F4FF8
:104600009F4FF22E032F142FB52FF62FE72FD82E02
:10461000E92E2F2D302F412F5B2F6F2F7E2F8D2DC9
:104620009E2D07E10E94C33019012A012053384F03
:104630004F4F5F4F2F8B388F498F5A8F30914604E1
:104640003E8B4F89588D698D7A8D403D574061056D
:1046500071050CF017C4353009F4FFC23E3009F47F
:10466000BCC1323009F0BFC56E857F8588899989C4
:104670009B01AC010E947030F22E032F142FB52F36
:10468000F62FE72FD82EE92EA0E00E94FE3084F40A
:1046900021503109410950486F4F7F4F8F4F9F4F35
:1046A000F22E032F142FB52FF62FE72FD82EE92E39
:1046B0002F2D302F412F5B2F6F2F7E2F8D2D9E2D75
:1046C0000FE10E94C33049015A01809299029092F1
:1046D0009A02A0929B02B0929C02BB0C8808982C74
:1046E000540180929D0280929E0280929F0280924D
:1046F000A0026F89788D898D9A8D605D77408109E0
:1047000091099B01AC010E94A72F6B017C01ADE3D5
:10471000B0E0AC019B010E94562F8B019C0144E04C
:1047200035952795179507954A95D1F700939102EE
:104730001093920220939302309394022B013C0138
:10474000770C4408542C3201409295024092960214
:104750004092970240929802CC0CDD1CEE1CFF1C8C
:10476000C0928902D0928A02E0928B02F0928C026F
:10477000C701B601990F660B762FCB016B8F7C8F2B
:104780008D8F9E8F60938D027B8D70938E027093C0
:104790008F02709390020F89188D298D3A8D043203
:1047A0001A4F2F4F3F4F0CF4A4C56091A90270918E
:1047B000AA0290E080E02E853F85488959890E94B1
:1047C0007030F22E032F142FB52FF62FE72FD82E8F
:1047D000E92EA0E00E94FE305CF4AFE30E94E930D5
:1047E000F22E032F142FB52FF62FE72FD82EE92EF8
:1047F0002F2D302F412F5B2F6F2F7E2F8D2D9E2D34
:1048000006E00E94C33039014A01B62FA72FF82FC6
:10481000E92FA090A502B090A602950140E050E0DB
:1048200060E070E080E090E001E10E94AA30590170
:104830006A017B018C019301A4016B2F7A2F8F2FCA
:104840009E2F0E94E0302093810230938202409399
:104850008302509384026093850270938602809352
:104860008702909388026091A7027091A80290E05D
:1048700080E02E853F85488959890E947030F22E4C
:10488000032F142FB52FF62FE72FD82EE92EA0E0F7
:104890000E94FE305CF4AFE70E94E930F22E032F55
:1048A000142FB52FF62FE72FD82EE92E2F2D302FCE
:1048B000412F5B2F6F2F7E2F8D2D9E2D07E00E94A5
:1048C000C33039014A01B62FA72FF82FE92FA09046
:1048D000A302B090A402950140E050E060E070E0D7
:1048E00080E090E000E19AC1FFCF80912804909190
:1048F00029047EE2C72E74E0D72E08E214E09C0162
:10490000285234407901C701800F911F0E94402F27
:10491000D80113968C930F5F1F4FC016D10699F7DD
:10492000D6CC61E070E080E090E00E94C103DCCD75
:104930001092C0021092BF02E3CD61E070E080E00F
:1049400090E00E94C103ECCD1092C2021092C1020D
:10495000F3CD811532E0930769F482E00E942E0DB9
:1049600060933B0470933C0480933D0490933E0419
:1049700082E103CE811544E0940769F484E00E944B
:104980002E0D60933B0470933C0480933D04909300
:104990003E0484E1F2CD811558E0950769F486E084
:1049A0000E942E0D60933B0470933C0480933D0461
:1049B00090933E0486E1E1CD8115904109F0E7CD69
:1049C00088E00E942E0D60933B0470933C0480931A
:1049D0003D0490933E0488E1D0CD6E857F85888923
:1049E00099899B01AC010E947030E3E0AE2EB12C9E
:1049F000C12CD12CE12CF12C00E010E00E941830E9
:104A000001E20E94C5302093990230939A024093AC
:104A10009B0250939C0260939D0270939E02809330
:104A20009F029093A002A2019101C201B1010E94D4
:104A3000A72F6B01A3E0B0E0AC019B010E94562FB1
:104A40008B019C0135952795179507950093910249
:104A5000109392022093930230939402DC01CB01D5
:104A6000BB0F880B982FDC018093950280939602F0
:104A70008093970280939802A5E0B0E096010E948F
:104A8000562F8B019C0143E0359527951795079587
:104A90004A95D1F70093890210938A0220938B02E2
:104AA00030938C02DC01CB01BB0F880B982FDC010B
:104AB00080938D0280938E0280938F028093900268
:104AC0000F89188D298D3A8D04321A4F2F4F3F4F81
:104AD0000CF497C36091A9027091AA0290E080E063
:104AE0002E853F85488959890E947030F22E032F08
:104AF000142FB52FF62FE72FD82EE92EA0E00E9415
:104B0000FE305CF4AFE70E94E930F22E032F142F41
:104B1000B52FF62FE72FD82EE92E2F2D302F412F2E
:104B20005B2F6F2F7E2F8D2D9E2D07E00E94C330AF
:104B300039014A01B62FA72FF82FE92FA090A5021F
:104B4000B090A602950140E050E060E070E080E0A7
:104B500090E000E10E94AA3059016A017B018C01BA
:104B60009301A4016B2F7A2F8F2F9E2F0E94E0308C
:104B700020938102309382024093830250938402F7
:104B800060938502709386028093870290938802D7
:104B90006091A7027091A80290E080E02E853F8589
:104BA000488959890E947030F22E032F142FB52F97
:104BB000F62FE72FD82EE92EA0E00E94FE3084F4D5
:104BC00021503F4F4F4F5F4F6F4F7F4F8F4F9F4F42
:104BD000F22E032F142FB52FF62FE72FD82EE92E04
:104BE0002F2D302F412F5B2F6F2F7E2F8D2D9E2D40
:104BF00008E00E94C33039014A01B62FA72FF82FD1
:104C0000E92FA090A302B090A402D12CC12C950151
:104C1000A60160E070E080E090E00FE00E94AA3022
:104C200059016A017B018C019301A4016B2F7A2F3A
:104C30008F2F9E2F0E94E0302093790230937A02CA
:104C400040937B0250937C0260937D0270937E02BE
:104C500080937F029093800258C16E857F858889FA
:104C600099899B01AC010E947030F3E0AF2EB12C0A
:104C7000C12CD12CE12CF12C00E010E00E94183066
:104C800001E20E94C5302093990230939A0240932A
:104C90009B0250939C0260939D0270939E028093AE
:104CA0009F029093A002A2019101C201B1010E9452
:104CB000A72F6B01A3E0B0E0AC019B010E94562F2F
:104CC0008B019C01A3E03595279517950795AA952B
:104CD000D1F70093910210939202209393023093A4
:104CE0009402DC01CB01BB0F880B982FDC01809371
:104CF0009502809396028093970280939802A7E092
:104D0000B0E096010E94562F8B019C0143E035953F
:104D10002795179507954A95D1F700938902109327
:104D20008A0220938B0230938C02DC01CB01BB0FF3
:104D3000880B982FDC0180938D0280938E028093E4
:104D40008F02809390026091A9027091AA0290E074
:104D500080E02E853F85488959890E947030F22E67
:104D6000032F142FB52FF62FE72FD82EE92EA0E012
:104D70000E94FE305CF4AFE10E94E930F22E032F76
:104D8000142FB52FF62FE72FD82EE92E2F2D302FE9
:104D9000412F5B2F6F2F7E2F8D2D9E2D05E00E94C2
:104DA000C33039014A01B62FA72FF82FE92FA09061
:104DB000A502B090A602950140E050E060E070E0EE
:104DC00080E090E002E10E94AA3059016A017B0173
:104DD0008C019301A4016B2F7A2F8F2F9E2F0E949D
:104DE000E0302093810230938202409383025093FB
:104DF0008402609385027093860280938702909369
:104E000088026091A7027091A80290E080E02E8550
:104E10003F85488959890E947030F22E032F142F44
:104E2000B52FF62FE72FD82EE92EA0E00E94FE30F6
:104E30005CF4AFE70E94E930F22E032F142FB52F58
:104E4000F62FE72FD82EE92E2F2D302F412F5B2F55
:104E50006F2F7E2F8D2D9E2D07E00E94C3303901CC
:104E60004A01B62FA72FF82FE92FA090A302B090E8
:104E7000A402950140E050E060E070E080E090E046
:104E800001E1CCCE5E89553031F05E3009F44FC17E
:104E9000523009F0A8C11092990210929A02109211
:104EA0009B0210929C0210929D0210929E02109200
:104EB0009F021092A0021092910210929202109200
:104EC0009302109294021092950210929602109200
:104ED0009702109298021092890210928A02109200
:104EE0008B0210928C0210928D0210928E02109200
:104EF0008F0210929002EE89E53009F424CFEE3053
:104F000009F4E8CDE23009F450CC809199029091F7
:104F10009A02A0919B02B0919C020F89188D298D55
:104F20003A8D081B190B2A0B3B0B0F8B188F298FFF
:104F30003A8F009337041093380420933904309348
:104F40003A04209181023091820240918302509173
:104F5000840260918502709186028091870290910F
:104F60008802A0909102B0909202C0909302D090DB
:104F70009402E0909502F0909602009197021091B1
:104F800098020E94F530722E632E542E452E962ED6
:104F9000872E382E292E209381023093820240934F
:104FA00083025093840260938502709386028093FB
:104FB0008702909388022091790230917A02409181
:104FC0007B0250917C0260917D0270917E02809103
:104FD0007F0290918002A0908902B0908A02C090D6
:104FE0008B02D0908C02E0908D02F0908E020091A6
:104FF0008F02109190020E94F53059016A017B01E5
:105000008C0120937902B0927A0240937B02D09275
:105010007C0260937D02F0927E0280937F02109367
:1050200080022E89253031F02E3009F4D5C122308E
:1050300009F051C260913B0470913C0480913D04A1
:1050400090913E04AB019A01AC0160E070E0CB01AD
:105050002E873F87488B598B6A8B7B8B8C8B9D8BE4
:1050600060E070E080E090E00E941830F22E032FA4
:10507000142FB52FF62FE72FD82EE92EA0E00E948F
:10508000FE3084F421503109404E5F4F6F4F7F4F07
:105090008F4F9F4FF22E032F142FB52FF62FE72F90
:1050A000D82EE92E2F2D302F412F5B2F6F2F7E2FE3
:1050B0008D2D9E2D05E10E94C330A72CB62CC52C4A
:1050C000D42CE92CF82C032D122D0E94F530F22E51
:1050D000032F142FB52FF62FE72FD82EE92EA0E09F
:1050E0000E94FE3084F4215030484F4F5F4F6F4F85
:1050F0007F4F8F4F9F4FF22E032F142FB52FF62F78
:10510000E72FD82EE92E2F2D302F412F5B2F6F2F19
:105110007E2F8D2D9E2D0FE00E94C33020933304EF
:10512000309334044093350450933604D4C16E85D3
:105130007F85888999899B01AC010E947030E7E0E6
:10514000AE2EB12CC12CD12CE12CF12C00E010E0C2
:105150000E94183005E20E94C530209399023093D6
:105160009A0240939B0250939C0260939D0270931D
:105170009E0280939F029093A002A2019101C2011E
:10518000B1010E94A72F8B019C01F4E03595279572
:1051900017950795FA95D1F7009391021093920213
:1051A0002093930230939402DC01CB01BB0F880B58
:1051B000982FDC018093950280939602809397024A
:1051C000809398021092890210928A0210928B02A8
:1051D00010928C0210928D0210928E0210928F0209
:1051E0001092900277CC6F89788D898D9A8D643278
:1051F0007A4F8F4F9F4F0CF07ECEBE89BE3009F0A4
:105200007ACE6F89788D898D9A8D64527A4F8F4FBF
:105210009F4F9B01AC010E94A72F2B013C01A7E0EF
:10522000B0E0AC019B010E94562F6B017C01FF0C8A
:10523000CC08DC2C76019B01AC016C2D7C2D8C2DD7
:105240009C2DA0909102B0909202C0909302D090B9
:105250009402E0909502F0909602009197021091CE
:1052600098020E94E0302093910230939202409382
:1052700093025093940260939502709396028093E8
:1052800097029093980252E0440C551C661C771CC0
:105290005A95D1F773016201FF0CCC08DC2C760122
:1052A0009201A3016C2D7C2D8C2D9C2DA090890248
:1052B000B0908A02C0908B02D0908C02E0908D0258
:1052C000F0908E0200918F02109190020E94E030C7
:1052D0002093890230938A0240938B0250938C0270
:1052E00060938D0270938E0280938F029093900250
:1052F000F1CB6F89788D898D9A8D64527A4F8F4F5B
:105300009F4F9B01AC010E94A72F6F8F78A389A3A9
:105310009AA3A4E1B0E09B01AC010E94562F6B015F
:105320007C01FF0CCC08DC2C76019B01AC016C2DC0
:105330007C2D8C2D9C2DA0909102B0909202C0905B
:105340009302D0909402E42CF42C042D142D0E948E
:10535000E030209391023093920240939302509355
:1053600094026093950270939602809397029093B3
:105370009802ACE0B0E02F8D38A149A15AA10E945B
:10538000562F6B017C01FF0CCC08DC2C76019B01B5
:10539000AC016C2D7C2D8C2D9C2DA0908902B090A1
:1053A0008A02C0908B02D0908C02EB8CFE2C0E2DCA
:1053B0001E2D0E94E0302093890230938A02409390
:1053C0008B0250938C0260938D0270938E028093B7
:1053D0008F0290939002E9C940913B0450913C04A4
:1053E00060913D0470913E049A01AB0160E070E071
:1053F000CB012E873F87488B598B6A8B7B8B8C8B9D
:105400009D8B60E070E080E090E00E941830F22E0A
:10541000032F142FB52FF62FE72FD82EE92EA0E05B
:105420000E94FE3084F421503109404E5F4F6F4F8F
:105430007F4F8F4F9F4FF22E032F142FB52FF62F34
:10544000E72FD82EE92E2F2D302F412F5B2F6F2FD6
:105450007E2F8D2D9E2D05E10E94C330A72CB62CEA
:10546000C52CD42CE92CF82C032D122D0E94F530DC
:10547000F22E032F142FB52FF62FE72FD82EE92E5B
:10548000A0E00E94FE3084F4215030484F4F5F4F1F
:105490006F4F7F4F8F4F9F4FF22E032F142FB52F3B
:1054A000F62FE72FD82EE92E2F2D302F412F5B2FEF
:1054B0006F2F7E2F8D2D9E2D0FE00E94C330AAE00E
:1054C000B0E00E94562F60933304709334048093AD
:1054D0003504909336048091300482FFA7C0409138
:1054E0003304509134046091350470913604409334
:1054F000BB025093BC026093BD027093BE0283FF57
:105500009EC06F89788D7093C4026093C3028091AE
:10551000C6028F938091C5028F938091C4028F93AE
:105520008091C3028F938091BE028F938091BD02C0
:105530008F938091BC028F938091BB028F93809157
:10554000C2028F938091C1028F938091C0028F938A
:105550008091BF028F938091BA028F938091B9029C
:105560008F938091B8028F938091B7028F9380912F
:10557000B6028F938091B5028F938091B4028F937E
:105580008091B3028F93E9E0F2E0FF93EF932EEC6A
:1055900032E03F932F930E9464318091B102909149
:1055A000B2020FB6F894DEBF0FBECDBF009729F050
:1055B00069E0855D9D4F0E9436146EEC72E087E4D1
:1055C00094E00E949E1780914B04882321F08BE485
:1055D00094E00E9440098EEC92E00E94B217209164
:1055E0000C0330910D0340910E0350910F031216DE
:1055F00013061406150654F46091B3027091B402B8
:105600008091B5029091B6020E94E11780E090E08F
:10561000892B11F40C942E220E947D02882311F410
:105620000C942E220E9400000C942E221092BB0299
:105630001092BC021092BD021092BE0260CF80E0B8
:1056400090E89093C4028093C30261CF1092BB0292
:105650001092BC021092BD021092BE02A0E0B0E80F
:10566000B093C402A093C30252CF0F931F93CF9362
:10567000DF938230910510F482E090E0E091D9064A
:10568000F091DA0630E020E0B0E0A0E0309799F445
:105690002115310509F44AC0281B390B2430310586
:1056A000D8F58A819B816115710589F1FB0193838E
:1056B0008283FE0111C0408151810281138148170C
:1056C0005907E0F04817590799F4109761F01296BE
:1056D0000C93129713961C933296CF01DF91CF91C2
:1056E0001F910F9108950093D9061093DA06F4CF15
:1056F0002115310551F04217530738F0A901DB019C
:105700009A01BD01DF01F801C1CFEF01F9CF9093FC
:10571000DA068093D906CDCFFE01E20FF31F819305
:1057200091932250310939832883D7CF2091D7060E
:105730003091D806232B41F42091110130911201B0
:105740003093D8062093D70620910F013091100195
:105750002115310541F42DB73EB740911301509109
:105760001401241B350BE091D706F091D806E217FF
:10577000F307A0F42E1B3F0B2817390778F0AC0174
:105780004E5F5F4F2417350748F04E0F5F1F509351
:10579000D8064093D706819391939FCFF0E0E0E045
:1057A0009CCFCF93DF930097E9F0FC0132971382EF
:1057B0001282A091D906B091DA06ED0130E020E026
:1057C0001097A1F420813181820F931F2091D70679
:1057D0003091D8062817390709F061C0F093D80630
:1057E000E093D706DF91CF910895EA01CE17DF0746
:1057F000E8F54A815B819E0141155105B1F7E90148
:10580000FB83EA8349915991C40FD51FEC17FD071B
:1058100061F4808191810296840F951FE90199833B
:105820008883828193819B838A83F0E0E0E01296F3
:105830008D919C9113970097B9F52D913C911197FB
:10584000CD010296820F931F2091D7063091D80682
:105850002817390739F6309751F51092DA06109269
:10586000D906B093D806A093D706BCCFD383C28302
:1058700040815181840F951FC817D90761F44E5F8D
:105880005F4F88819981480F591F518340838A81D6
:105890009B81938382832115310509F0B0CFF0936A
:1058A000DA06E093D9069ECFFD01DC01C0CF13825A
:1058B0001282D7CF1F93FC0199278827BC01E89457
:1058C00011911032E9F3193010F01E30C8F31B3279
:1058D00051F01D3249F4689406C00E94AD2C610F4E
:1058E000711D811D911D119110531A30B0F33EF4BA
:1058F00090958095709561957F4F8F4F9F4F1F9129
:10590000089545ED56E00E94862C0895FA01A19174
:10591000B081009719F41097E1F0CD01DC01CD01C1
:105920000D90002011F4C00113C0FB01219122232E
:1059300019F02015D9F7F3CFFB012191201519F4A7
:105940001E92119606C02223C1F70D900020A1F7E8
:10595000D001FA01A193B0830895592F482F372F12
:10596000262F660F771F881F991F660F771F881FC6
:10597000991F620F731F841F951F660F771F881F63
:10598000991F0895ABE0B0E0E8ECFCE20C94612FC5
:105990007C013B018A01FC0117821682838181FF11
:1059A000C8C1CE0101965C01F7019381F30193FD1B
:1059B000859193FF81913F01882309F453C185327A
:1059C00039F493FD859193FF81913F01853229F44C
:1059D000B70190E00E94B22EE7CF912C212C312C00
:1059E000FFE1F31538F08B3211F190F4803209F1B8
:1059F000833229F137FC3CC020ED280F2A3050F5C6
:105A000036FE20C08AE0989E200D1124922E06C0FA
:105A10008D3291F0803371F7689430F8F30193FD83
:105A2000859193FF81913F018111DACF21C0689464
:105A300031F8689432F8F2CF689433F8EFCF689475
:105A400034F8ECCFEAE02E9E200D1124222E68942B
:105A500035F8E4CF8E3229F436FC04C1689436F868
:105A6000DDCF8C3619F4689437F8D8CF8836B1F288
:105A7000982F9F7D95549330E0F08336A1F18337C2
:105A8000C1F1833509F063C02801F2E04F0E511CCB
:105A9000F801C080D180692D70E036FC02C06FEF44
:105AA0007FEFC6010E949C2E4C01689437F882015A
:105AB0000AC00C5F1F4FFFE3F98388248394912C65
:105AC0006501E89437F833FE2DC0522C81149104FF
:105AD00071F5552009F468CFB70180E290E00E948B
